:020000040800F2
:1000000000280020C50A0008D9090008DF090008F7
:10001000E5090008EB090008F109000800000000EC
:10002000000000000000000000000000F7090008C8
:10003000030A0008000000000F0A00081B0A00085D
:100040000D0B00080D0B00080D0B00080D0B000830
:100050000D0B00080D0B00080D0B00080D0B000820
:100060000D0B00080D0B00080D0B00080D0B000810
:100070000D0B00080D0B00080D0B00080D0B000800
:100080000D0B00080D0B00080D0B00080D0B0008F0
:100090000D0B00080D0B00080D0B0008270A0008C7
:1000A0000D0B00080D0B00080D0B00080D0B0008D0
:1000B0000D0B00080D0B0008000000000D0B0008E0
:1000C0000D0B000800000000000000000D0B0008F0
:1000D000000000000D0B00080D0B000800000000E0
:1000E0000D0B00080D0B00080D0B000800000000B0
:1000F0000000000000000000000000000000000000
:0C01000000000000000000005FF808F1A3
:10010C0010B5054C237833B9044B13B10448AFF345
:10011C0000800123237010BD70000020000000003F
:10012C009026000808B5034B1BB103490348AFF3F5
:10013C00008008BD0000000074000020902600081C
:10014C00034613F8012B002AFBD1181A013870470B
:10015C0080B500AF00F0D6FC00F01EF800F082F87D
:10016C0000F056F801224FF40041094800F0CDFF91
:10017C0001220821074800F0C8FF01221021054880
:10018C0000F0C3FF01222021024800F0BEFFFEE771
:10019C0000080140000C014080B590B000AF07F1A1
:1001AC00180328220021184601F0EAFD3B1D00220D
:1001BC001A605A609A60DA601A610223BB610123EB
:1001CC00BB621023FB6200237B6307F11803184604
:1001DC0000F0CCFF0346002B01D000F073FB0F2383
:1001EC007B600023BB600023FB6000233B6100238A
:1001FC007B613B1D0021184601F03AFA0346002BA7
:10020C0001D000F05FFB00BF4037BD4680BD000051
:10021C0080B500AF114B124A1A60104B4FF41652B6
:10022C005A600E4B00229A600C4B0022DA600B4B8A
:10023C0000221A61094B0C225A61084B00229A6168
:10024C00064B0022DA61054801F0A0FB0346002BA7
:10025C0001D000F037FB00BF80BD00BFAC00002018
:10026C000038014080B588B000AF07F110030022C0
:10027C001A605A609A60DA60324B9B69314A43F0DB
:10028C00200393612F4B9B6903F02003FB60FB68F9
:10029C002C4B9B692B4A43F004039361294B9B69BC
:1002AC0003F00403BB60BB68264B9B69254A43F0F3
:1002BC0008039361234B9B6903F008037B607B6805
:1002CC0000224FF40041204800F01FFF002238218B
:1002DC001E4800F01AFF4FF400433B6101237B6181
:1002EC000023BB610223FB6107F11003194616487A
:1002FC0000F078FD38233B6101237B610023BB6157
:10030C000223FB6107F110031946104800F06AFD47
:10031C004FF470733B610E4B7B610023BB6107F1A3
:10032C0010031946094800F05DFD0022002117203A
:10033C0000F021FD172000F03AFD00BF2037BD462C
:10034C0080BD00BF0010024000080140000C0140BD
:10035C000000111080B592B000AF0346FB8000F096
:10036C0029FC0346914A1360904B1A68904B1B680A
:10037C00D31A0A2B40F28F828E4B4FF470721A6094
:10038C008C4B00225A608B4B00229A60894B0222C4
:10039C00DA608849884800F025FD01224FF40041BD
:1003AC00864800F0B2FE00220821834800F0ADFE22
:1003BC0000221021804800F0A8FE002220217E4857
:1003CC0000F0A3FEFB88402B1BD140217A4800F0A3
:1003DC0085FE0346002B14D0442387F8443007F1E4
:1003EC0044031A467649774801F0D2FC7548FFF76A
:1003FC00A7FE03469AB219237249734801F016FB03
:10040C005FE0FB88802B1BD180216B4800F066FEDF
:10041C000346002B14D0432387F8403007F14003E8
:10042C001A466749674801F0B3FC6648FFF788FE37
:10043C0003469AB219236349634801F0F7FA40E086
:10044C00FB88B3F5807F1CD14FF480715A4800F0C3
:10045C0045FE0346002B14D0422387F83C3007F1AD
:10046C003C031A465649574801F092FC5548FFF791
:10047C0067FE03469AB219235249534801F0D6FA43
:10048C001FE0FB88B3F5007F1BD14FF400714A4885
:10049C0000F024FE0346002B13D0412387F838309C
:1004AC0007F138031A464649464801F071FC4548A5
:1004BC00FFF746FE03469AB219234249424801F01F
:1004CC00B5FA00224FF400413C4800F01EFE012218
:1004DC000821394800F019FE00221021364800F09E
:1004EC0014FE00222021344800F00FFEFB88402B24
:1004FC001BD14021304800F0F1FD0346002B14D0F5
:10050C00232387F8343007F134031A462C492D483D
:10051C0001F03EFC2B48FFF713FE03469AB2192359
:10052C002849294801F082FA70E0FB88802B1BD106
:10053C008021214800F0D2FD0346002B14D0392332
:10054C0087F8303007F130031A461D491D4801F079
:10055C001FFC1C48FFF7F4FD03469AB219231949F6
:10056C00194801F063FA51E0FB88B3F5807F2DD177
:10057C004FF48071104800F0B1FD0346002B25D0DC
:10058C00362387F82C3007F12C031A460C490D48FA
:10059C0001F0FEFB0B48FFF7D3FD03469AB219237B
:1005AC000849094801F042FA30E000BF0801002078
:1005BC0004010020F4000020000C01400008014060
:1005CC00A82600088C000020AC000020FB88B3F5A6
:1005DC00007F1BD14FF40071B14800F07FFD034642
:1005EC00002B13D0332387F8283007F128031A4641
:1005FC00AC49AD4801F0CCFBAB48FFF7A1FD03467D
:10060C009AB21923A849A94801F010FA00224FF414
:10061C000041A74800F079FD00220821A04800F015
:10062C0074FD012210219E4800F06FFD0022202154
:10063C009B4800F06AFDFB88402B1BD14021984859
:10064C0000F04CFD0346002B14D0302387F82430E7
:10065C0007F124031A469349934801F099FB9248F9
:10066C00FFF76EFD03469AB219238F498F4801F0AC
:10067C00DDF95DE0FB88802B1BD18021884800F0E0
:10068C002DFD0346002B14D0382387F8203007F1BA
:10069C0020031A468349844801F07AFB8248FFF70D
:1006AC004FFD03469AB219237F49804801F0BEF9E9
:1006BC003EE0FB88B3F5807F1BD14FF48071784806
:1006CC0000F00CFD0346002B13D035233B7707F1CC
:1006DC001C031A467349744801F05AFB7248FFF721
:1006EC002FFD03469AB219236F49704801F09EF909
:1006FC001EE0FB88B3F5007F1AD14FF400716848F7
:10070C0000F0ECFC0346002B12D032233B7607F1B1
:10071C0018031A466349644801F03AFB6248FFF734
:10072C000FFD03469AB219235F49604801F07EF928
:10073C0000224FF400415E4800F0E7FC0022082143
:10074C00574800F0E2FC00221021554800F0DDFC77
:10075C0001222021524800F0D8FCFB88402B1AD1F2
:10076C0040214F4800F0BAFC0346002B13D02A233B
:10077C003B7507F114031A464A494B4801F008FB34
:10078C004948FFF7DDFC03469AB21923464947480E
:10079C0001F04CF95CE0FB88802B1AD18021404899
:1007AC0000F09CFC0346002B13D037233B7407F15D
:1007BC0010031A463B493C4801F0EAFA3A48FFF765
:1007CC00BFFC03469AB219233749384801F02EF979
:1007DC003EE0FB88B3F5807F1BD14FF4807130482D
:1007EC0000F07CFC0346002B13D034233B7307F141
:1007FC000C031A462B492C4801F0CAFA2A48FFF779
:10080C009FFC03469AB219232749284801F00EF998
:10081C001EE0FB88B3F5007F1AD14FF4007120481D
:10082C0000F05CFC0346002B12D031233B7207F125
:10083C0008031A461B491C4801F0AAFA1A48FFF78C
:10084C007FFC03469AB219231749184801F0EEF8B9
:10085C0001224FF40041164800F057FC01220821F8
:10086C000F4800F052FC012210210D4800F04DFC05
:10087C00012220210A4800F048FC0E4B0E4A5A6017
:10088C000C4B02229A600B49054800F0ABFA0B4B5B
:10089C001B680B4A136000BF4837BD4680BD00BFC4
:1008AC00000C0140A82600088C000020AC000020A1
:1008BC0000080140F4000020000011100801002085
:1008CC000401002080B400AF72B600BFFEE7000048
:1008DC0080B485B000AF154B9B69144A43F00103FB
:1008EC009361124B9B6903F00103BB60BB680F4B18
:1008FC00DB690E4A43F08053D3610C4BDB6903F088
:10090C0080537B607B680A4B5B68FB60FB6823F061
:10091C00E063FB60FB6843F00073FB60044AFB6818
:10092C00536000BF1437BD4680BC704700100240B6
:10093C000000014080B588B000AF786007F110036B
:10094C0000221A605A609A60DA607B681B681C4A45
:10095C00934231D11B4B9B691A4A43F480439361F8
:10096C00184B9B6903F48043FB60FB68154B9B6938
:10097C00144A43F004039361124B9B6903F0040384
:10098C00BB60BB684FF400733B6102237B610323A4
:10099C00FB6107F1100319460B4800F023FA4FF4E2
:1009AC0080633B6100237B610023BB6107F1100373
:1009BC001946054800F016FA00BF2037BD4680BD29
:1009CC0000380140001002400008014080B400AF24
:1009DC00FEE780B400AFFEE780B400AFFEE780B462
:1009EC0000AFFEE780B400AFFEE780B400AF00BFFD
:1009FC00BD4680BC704780B400AF00BFBD4680BC14
:100A0C00704780B400AF00BFBD4680BC704780B556
:100A1C0000AF00F0BDF800BF80BD80B500AF402036
:100A2C0000F08CFB802000F089FB4FF4807000F00C
:100A3C0085FB4FF4007000F081FB00BF80BD00000F
:100A4C0080B586B000AF7860144A154BD31A7B6121
:100A5C007B693B61134B1B68002B02D1114B124A73
:100A6C001A60104B1A687B6813443A699A4207D291
:100A7C0001F05CF903460C221A604FF0FF3309E0D9
:100A8C00084B1B68FB60074B1A687B681344054ACC
:100A9C001360FB6818461837BD4680BD002800203F
:100AAC00000400000C0100202801002080B400AFDD
:100ABC0000BFBD4680BC7047FFF7F8FF0B480C49E0
:100ACC000C4A002302E0D458C4500433C4188C429E
:100ADC00F9D3094A094C002301E013600432A24205
:100AEC00FBD301F029F9FFF733FB7047000000201E
:100AFC007000002020270008700000202401002036
:100B0C00FEE7000080B500AF084B1B68074A43F0B6
:100B1C0010031360032000F023F90F2000F008F8F5
:100B2C00FFF7D6FE0023184680BD00BF0020024010
:100B3C0080B582B000AF7860124B1A68124B1B78EC
:100B4C0019464FF47A73B3FBF1F3B2FBF3F3184687
:100B5C0000F03BF90346002B01D001230EE07B682B
:100B6C000F2B0AD8002279684FF0FF3000F003F900
:100B7C00064A7B681360002300E0012318460837FF
:100B8C00BD4680BD000000200800002004000020AD
:100B9C0080B400AF054B1B781A46054B1B681344F9
:100BAC00034A136000BFBD4680BC7047080000209C
:100BBC001001002080B400AF024B1B681846BD46E4
:100BCC0080BC70471001002080B485B000AF786005
:100BDC007B6803F00703FB600C4BDB68BB60BA68F7
:100BEC004FF6FF031340BB60FB681A02BB6813434C
:100BFC0043F0BF6343F40033BB60044ABB68D3606B
:100C0C0000BF1437BD4680BC704700BF00ED00E04C
:100C1C0080B400AF044BDB681B0A03F007031846D3
:100C2C00BD4680BC704700BF00ED00E080B483B0CF
:100C3C0000AF0346FB7197F90730002B0BDBFB79F8
:100C4C0003F01F02064997F907305B09012000FAEF
:100C5C0002F241F8232000BF0C37BD4680BC704720
:100C6C0000E100E080B483B000AF03463960FB7153
:100C7C0097F90730002B0ADB3B68DAB20C4997F97D
:100C8C0007301201D2B20B4483F800230AE03B6810
:100C9C00DAB20849FB7903F00F03043B1201D2B21C
:100CAC000B441A7600BF0C37BD4680BC704700BFA2
:100CBC0000E100E000ED00E080B489B000AFF86026
:100CCC00B9607A60FB6803F00703FB61FB69C3F151
:100CDC000703042B28BF0423BB61FB690433062BD9
:100CEC0002D9FB69033B00E000237B614FF0FF322C
:100CFC00BB6902FA03F3DA43BB681A407B699A407A
:100D0C004FF0FF317B6901FA03F3D9437B680B4049
:100D1C00134318462437BD4680BC704780B582B05B
:100D2C0000AF78607B68013BB3F1807F01D3012376
:100D3C000FE00A4A7B68013B53600F214FF0FF30F4
:100D4C00FFF790FF054B00229A60044B07221A60B4
:100D5C00002318460837BD4680BD00BF10E000E0F8
:100D6C0080B582B000AF78607868FFF72DFF00BFC8
:100D7C000837BD4680BD80B586B000AF0346B9606C
:100D8C007A60FB7300237B61FFF742FF78617A681E
:100D9C00B9687869FFF790FF024697F90F30114652
:100DAC001846FFF75FFF00BF1837BD4680BD80B502
:100DBC0082B000AF0346FB7197F907301846FFF776
:100DCC0035FF00BF0837BD4680BD80B582B000AF8F
:100DDC0078607868FFF7A2FF034618460837BD46CF
:100DEC0080BD000080B48BB000AF78603960002308
:100DFC007B6200233B6261E101227B6A02FA03F30E
:100E0C00FB613B681B68FA691340BB61BA69FB69FB
:100E1C009A4240F050813B685B68974A93425ED09F
:100E2C00954A934275D8954A934258D0934A934227
:100E3C006FD8934A934252D0914A934269D8914ABF
:100E4C0093424CD08F4A934263D88F4A934246D0F8
:100E5C008D4A93425DD8122B2AD8122B59D801A255
:100E6C0052F823F0EB0E0008C50E0008D70E000850
:100E7C00190F00081F0F00081F0F00081F0F000894
:100E8C001F0F00081F0F00081F0F00081F0F00087E
:100E9C001F0F00081F0F00081F0F00081F0F00086E
:100EAC001F0F00081F0F0008CD0E0008E10E0008F0
:100EBC00764A934213D02CE03B68DB683B6229E016
:100ECC003B68DB6804333B6224E03B68DB68083337
:100EDC003B621FE03B68DB680C333B621AE03B680B
:100EEC009B68002B02D104233B6213E03B689B6898
:100EFC00012B05D108233B627B68FA691A6109E072
:100F0C0008233B627B68FA695A6103E000233B6269
:100F1C0000E000BFBB69FF2B01D87B6801E07B6858
:100F2C0004337B61BB69FF2B02D87B6A9B0002E018
:100F3C007B6A083B9B003B617B691A680F213B690C
:100F4C0001FA03F3DB431A40396A3B6901FA03F3F4
:100F5C001A437B691A603B685B6803F08053002B73
:100F6C0000F0A9804A4B9B69494A43F00103936105
:100F7C00474B9B6903F00103BB60BB68454A7B6A26
:100F8C009B08023352F82330FB607B6A03F00303A7
:100F9C009B000F2202FA03F3DB43FA681340FB6059
:100FAC007B683D4A93420DD07B683C4A934207D004
:100FBC007B683B4A934201D1022304E0032302E005
:100FCC00012300E000237A6A02F0030292009340AE
:100FDC00FA681343FB602F497B6A9B080233FA685B
:100FEC0041F823203B685B6803F48013002B06D088
:100FFC002C4B9A682B49BB6913438B6006E0294B39
:10100C009A68BB69DB43274913408B603B685B687C
:10101C0003F40013002B06D0224BDA682149BB697C
:10102C001343CB6006E01F4BDA68BB69DB431D49F9
:10103C001340CB603B685B6803F40033002B06D095
:10104C00184B5A681749BB6913434B6006E0154BA4
:10105C005A68BB69DB43134913404B603B685B68C0
:10106C0003F48033002B1FD00E4B1A680D49BB695B
:10107C0013430B601FE000BF000032100000311062
:10108C0000002210000021100000121000001110AE
:10109C00001002400000014000080140000C01401B
:1010AC0000100140000401400B4B1A68BB69DB4384
:1010BC00094913400B607B6A01337B623B681A68F9
:1010CC007B6A22FA03F3002B7FF496AE00BF00BFBD
:1010DC002C37BD4680BC70470004014080B485B0FD
:1010EC0000AF78600B467B807B689A687B881340E6
:1010FC00002B02D00123FB7301E00023FB73FB7B6D
:10110C0018461437BD4680BC704780B483B000AF1E
:10111C0078600B467B8013467B707B78002B03D06A
:10112C007A887B681A6103E07B881A047B681A61F1
:10113C0000BF0C37BD4680BC7047000080B582B044
:10114C0000AF0346FB80084B5A69FB881340002B09
:10115C0006D0054AFB885361FB881846FFF7FAF85E
:10116C0000BF0837BD4680BD0004014080B586B085
:10117C0000AF78607B68002B01D1012372E27B68A1
:10118C001B6803F00103002B00F08780924B5B6817
:10119C0003F00C03042B0CD08F4B5B6803F00C0397
:1011AC00082B12D18C4B5B6803F48033B3F5803F72
:1011BC000BD1894B1B6803F40033002B6CD07B687C
:1011CC005B68002B68D101234CE27B685B68B3F54C
:1011DC00803F06D1804B1B687F4A43F480331360F9
:1011EC002EE07B685B68002B0CD17B4B1B687A4A2A
:1011FC0023F480331360784B1B68774A23F48023E5
:10120C0013601DE07B685B68B3F5A02F0CD1724BAB
:10121C001B68714A43F4802313606F4B1B686E4A42
:10122C0043F4803313600BE06B4B1B686A4A23F466
:10123C0080331360684B1B68674A23F48023136068
:10124C007B685B68002B13D0FFF7B4FC386108E0B7
:10125C00FFF7B0FC02463B69D31A642B01D9032378
:10126C0000E25D4B1B6803F40033002BF0D014E05C
:10127C00FFF7A0FC386108E0FFF79CFC02463B69D5
:10128C00D31A642B01D90323ECE1534B1B6803F4F1
:10129C000033002BF0D100E000BF7B681B6803F02B
:1012AC000203002B63D04C4B5B6803F00C03002B48
:1012BC000BD0494B5B6803F00C03082B1CD1464B3D
:1012CC005B6803F48033002B16D1434B1B6803F08F
:1012DC000203002B05D07B681B69012B01D0012375
:1012EC00C0E13D4B1B6823F0F8027B685B69DB00B7
:1012FC00394913430B603AE07B681B69002B20D003
:10130C00364B01221A60FFF755FC386108E0FFF7F5
:10131C0051FC02463B69D31A022B01D90323A1E1EC
:10132C002D4B1B6803F00203002BF0D02A4B1B68DB
:10133C0023F0F8027B685B69DB00274913430B60E1
:10134C0015E0264B00221A60FFF734FC386108E0E8
:10135C00FFF730FC02463B69D31A022B01D9032359
:10136C0080E11D4B1B6803F00203002BF0D17B685E
:10137C001B6803F00803002B3AD07B689B69002B99
:10138C0019D0174B01221A60FFF714FC386108E0E2
:10139C00FFF710FC02463B69D31A022B01D9032339
:1013AC0060E10D4B5B6A03F00203002BF0D00120CF
:1013BC0000F0CEFA1CE00A4B00221A60FFF7FAFB91
:1013CC0038610FE0FFF7F6FB02463B69D31A022B9C
:1013DC0008D9032346E100BF00100240000042423E
:1013EC0080044242924B5B6A03F00203002BE9D16A
:1013FC007B681B6803F00403002B00F0A68000231D
:10140C00FB758B4BDB6903F08053002B0DD1884BA4
:10141C00DB69874A43F08053D361854BDB6903F06A
:10142C008053BB60BB680123FB75824B1B6803F4C4
:10143C008073002B18D17F4B1B687E4A43F480735A
:10144C001360FFF7B7FB386108E0FFF7B3FB024608
:10145C003B69D31A642B01D9032303E1754B1B6839
:10146C0003F48073002BF0D07B68DB68012B06D172
:10147C006F4B1B6A6E4A43F0010313622DE07B68CD
:10148C00DB68002B0CD16A4B1B6A694A23F0010301
:10149C001362674B1B6A664A23F0040313621CE059
:1014AC007B68DB68052B0CD1614B1B6A604A43F0EF
:1014BC00040313625E4B1B6A5D4A43F00103136223
:1014CC000BE05B4B1B6A5A4A23F001031362584B27
:1014DC001B6A574A23F0040313627B68DB68002BFA
:1014EC0015D0FFF767FB38610AE0FFF763FB024694
:1014FC003B69D31A41F28832934201D90323B1E0FC
:10150C004B4B1B6A03F00203002BEED014E0FFF7E9
:10151C0051FB38610AE0FFF74DFB02463B69D31AD9
:10152C0041F28832934201D903239BE0404B1B6A62
:10153C0003F00203002BEED1FB7D012B05D13C4BBC
:10154C00DB693B4A23F08053D3617B68DB69002B5A
:10155C0000F08780364B5B6803F00C03082B61D0DE
:10156C007B68DB69022B46D1334B00221A60FFF7F4
:10157C0021FB386108E0FFF71DFB02463B69D31ADB
:10158C00022B01D903236DE0294B1B6803F0007378
:10159C00002BF0D17B681B6AB3F5803F08D1244B3C
:1015AC005B6823F400327B689B68214913434B60D2
:1015BC001F4B5B6823F474127B68196A7B685B6A47
:1015CC000B431B4913434B601B4B01221A60FFF763
:1015DC00F1FA386108E0FFF7EDFA02463B69D31ADD
:1015EC00022B01D903233DE0114B1B6803F0007360
:1015FC00002BF0D035E0104B00221A60FFF7DAFA1E
:10160C00386108E0FFF7D6FA02463B69D31A022B81
:10161C0001D9032326E0064B1B6803F00073002B53
:10162C00F0D11EE07B68DB69012B07D1012319E0A7
:10163C000010024000700040600042420B4B5B689F
:10164C00FB60FB6803F480327B681B6A9A4206D10C
:10165C00FB6803F470127B685B6A9A4201D0012329
:10166C0000E0002318461837BD4680BD001002402C
:10167C0080B584B000AF786039607B68002B01D1F5
:10168C000123D0E06A4B1B6803F007033A689A42C7
:10169C0010D9674B1B6823F0070265493B6813435D
:1016AC000B60634B1B6803F007033A689A4201D046
:1016BC000123B8E07B681B6803F00203002B20D0E9
:1016CC007B681B6803F00403002B05D0594B5B6847
:1016DC00584A43F4E06353607B681B6803F00803CB
:1016EC00002B05D0534B5B68524A43F46053536054
:1016FC00504B5B6823F0F0027B689B684D491343A9
:10170C004B607B681B6803F00103002B40D07B68A7
:10171C005B68012B07D1474B1B6803F40033002B8C
:10172C0015D101237FE07B685B68022B07D1414B0D
:10173C001B6803F00073002B09D1012373E03D4BB0
:10174C001B6803F00203002B01D101236BE0394B22
:10175C005B6823F003027B685B68364913434B607C
:10176C00FFF728FAF8600AE0FFF724FA0246FB6854
:10177C00D31A41F28832934201D9032353E02D4B03
:10178C005B6803F00C027B685B689B009A42EBD1B0
:10179C00274B1B6803F007033A689A4210D2244B7C
:1017AC001B6823F0070222493B6813430B60204B54
:1017BC001B6803F007033A689A4201D0012332E018
:1017CC007B681B6803F00403002B08D0194B5B6883
:1017DC0023F4E0627B68DB68164913434B607B683B
:1017EC001B6803F00803002B09D0124B5B6823F431
:1017FC0060527B681B69DB000E4913434B6000F0A1
:10180C0021F802460B4B5B681B0903F00F030A49D6
:10181C00CB5C22FA03F3094A1360094B1B68184688
:10182C00FFF786F9002318461037BD4680BD00BF70
:10183C000020024000100240B826000800000020E2
:10184C000400002080B487B000AF0023FB600023AD
:10185C00BB6000237B6100237B6000233B611E4B3C
:10186C005B68FB60FB6803F00C03042B02D0082BB5
:10187C0003D027E0194B3B6127E0FB689B0C03F07E
:10188C000F03174AD35C7B60FB6803F48033002B97
:10189C0010D0114B5B685B0C03F00103114AD35C55
:1018AC00BB607B680D4A03FB02F2BB68B2FBF3F32F
:1018BC007B6104E07B680C4A02FB03F37B617B6970
:1018CC003B6102E0054B3B6100BF3B6918461C378E
:1018DC00BD4680BC704700BF0010024000127A0069
:1018EC00D0260008E026000800093D0080B400AFB7
:1018FC00024B1B681846BD4680BC70470000002098
:10190C0080B500AFFFF7F2FF0246054B5B681B0A80
:10191C0003F007030349CB5C22FA03F3184680BD9E
:10192C0000100240C826000880B500AFFFF7DEFFAC
:10193C000246054B5B68DB0A03F007030349CB5CEB
:10194C0022FA03F3184680BD00100240C826000896
:10195C0080B485B000AF78600A4B1B680A4AA2FBC2
:10196C0003235B0A7A6802FB03F3FB6000BFFB688E
:10197C005A1EFA60002BF9D100BF00BF1437BD46C8
:10198C0080BC704700000020D34D621080B582B03F
:10199C0000AF78607B68002B01D1012342E07B68AB
:1019AC0093F84130DBB2002B06D17B68002283F820
:1019BC0040207868FEF7BEFF7B68242283F8412024
:1019CC007B681B68DA687B681B6822F40052DA605B
:1019DC00786800F01DF97B681B681A697B681B68C6
:1019EC0022F490421A617B681B685A697B681B68F9
:1019FC0022F02A025A617B681B68DA687B681B68D4
:101A0C0042F40052DA607B6800225A647B68202220
:101A1C0083F841207B68202283F842207B680022D7
:101A2C005A63002318460837BD4680BD80B58AB07E
:101A3C0002AFF860B9603B601346FB8000237B610A
:101A4C00FB6893F84130DBB2202B6DD1BB68002BC7
:101A5C0002D0FB88002B01D1012366E0FB68002239
:101A6C005A64FB68212283F84120FFF7A3F87861C0
:101A7C00FB68FA889A84FB68FA88DA84FB689B68AE
:101A8C00B3F5805F08D1FB681B69002B04D10023E0
:101A9C00FB61BB68BB6103E0BB68FB610023BB61FE
:101AAC002AE03B6800937B6900228021F86800F0F3
:101ABC0040F80346002B01D0032336E0FB69002BD2
:101ACC000BD1BB691B881A46FB681B68C2F3080262
:101ADC005A60BB690233BB6107E0FB691A78FB688B
:101AEC001B685A60FB690133FB61FB68DB8C9BB2A2
:101AFC00013B9AB2FB68DA84FB68DB8C9BB2002B4F
:101B0C00CFD13B6800937B6900224021F86800F03C
:101B1C0010F80346002B01D0032306E0FB682022BB
:101B2C0083F84120002300E0022318462037BD46ED
:101B3C0080BD80B590B000AFF860B9603B601346D3
:101B4C00FB7150E0BB6CB3F1FF3F4CD0BB6C002B76
:101B5C0007D0FFF72FF802463B68D31ABA6C9A42AB
:101B6C0041D2FB681B680C33BB62BB6A53E8003F75
:101B7C007B627B6A23F4D073FB63FB681B680C33BA
:101B8C00FA6B7A633B63396B7A6B41E80023FB6237
:101B9C00FB6A002BE5D1FB681B6814337B617B6906
:101BAC0053E8003F3B613B6923F00103BB63FB68D7
:101BBC001B681433BA6B3A62FB61F9693A6A41E803
:101BCC000023BB61BB69002BE5D1FB68202283F8A5
:101BDC004120FB68202283F84220FB68002283F816
:101BEC00402003230FE0FB681B681A68BB68134096
:101BFC00BA689A420CBF01230023DBB21A46FB7968
:101C0C009A429FD0002318464037BD4680BD000045
:101C1C0080B584B000AF78607B681B681B6923F4C7
:101C2C0040517B68DA687B681B680A431A617B68E1
:101C3C009A687B681B691A437B685B691343BB60BA
:101C4C007B681B68DB6823F4B05323F00C037A68C1
:101C5C001268B9680B43D3607B681B685B6923F41B
:101C6C0040717B689A697B681B680A435A617B6880
:101C7C001B682C4A934203D1FFF756FEF86002E032
:101C8C00FFF73EFEF860FA6813469B0013449A0077
:101C9C001A447B685B689B00B2FBF3F3224AA2FBFD
:101CAC0003235B091901FA6813469B0013449A003D
:101CBC001A447B685B689B00B2FBF3F21A4BA3FBE4
:101CCC0002035B09642000FB03F3D31A1B013233BC
:101CDC00154AA2FB03235B0903F0F0031944FA68CD
:101CEC0013469B0013449A001A447B685B689B0064
:101CFC00B2FBF3F20C4BA3FB02035B09642000FB69
:101D0C0003F3D31A1B013233074AA2FB03235B09EB
:101D1C0003F00F027B681B680A449A6000BF1037FF
:101D2C00BD4680BD003801401F85EB51014B186842
:101D3C00704700BF0C00002070B500260C4D0D4CF8
:101D4C00641BA410A64209D100F09CFC00260A4D8D
:101D5C000A4C641BA410A64205D170BD55F8043B77
:101D6C0098470136EEE755F8043B98470136F2E701
:101D7C001827000818270008182700081C27000837
:101D8C0003460244934200D1704703F8011BF9E764
:101D9C000EB46FF0004100B59CB01DAB02900690E4
:101DAC00079104910848094953F8042B05910068E0
:101DBC0002A9019300F068F80022029B1A701CB073
:101DCC005DF804EB03B070470C0000200802FFFF25
:101DDC002DE9F0478E6882469E420C4690461F467F
:101DEC0038D88A8912F4906F32D02568096901338A
:101DFC00A5EB010965694B4405EB450505EBD5756C
:101E0C006D109D4238BF1D46530531D5294600F053
:101E1C006FFB064650B90C234FF0FF30CAF8003068
:101E2C00A38943F04003A381BDE8F0874A462169AA
:101E3C0000F0CEFAA38923F4906343F08003A381CE
:101E4C0026614E4426603E466561A5EB0905A560FA
:101E5C00BE4200D93E4632464146206800F0C6FAE2
:101E6C00A36800209B1BA360236833442360DBE73B
:101E7C002A4600F0B1FB06460028E1D15046216904
:101E8C0000F0CEFAC7E700002DE9F04F98468B8999
:101E9C0007461B060D4614469DB00ED50B6963B95B
:101EAC00402100F025FB2860286120B90C233B6001
:101EBC004FF0FF30D1E040236B61002309932023C6
:101ECC008DF8293030234FF00109CDF80C80DFF864
:101EDC00A4818DF82A3023469A4613F8012B0AB1B7
:101EEC00252AF9D1BAEB040B0BD05B4622462946C6
:101EFC003846FFF76DFF013000F0AA80099A5A446A
:101F0C0009929AF80030002B00F0A28000234FF0C9
:101F1C00FF32CDE905230AF1010A049307938DF8EA
:101F2C0053301A935446052214F8011B514800F003
:101F3C0041FA049AD8B9D00644BF20238DF8533007
:101F4C00110744BF2B238DF853309AF800302A2BFD
:101F5C0015D0544600204FF00A0C079A214611F870
:101F6C00013B303B092B4ED9B0B1079214E0A0EBEA
:101F7C00080309FA03F31343A2460493D2E7039B25
:101F8C00191D1B680391002BBBBF5B4242F0020280
:101F9C0007930793B8BF049223782E2B0CD1637848
:101FAC002A2B35D1039B02341A1D1B680392002B7C
:101FBC00B8BF4FF0FF330593DFF8BCA003225046A7
:101FCC00217800F0F7F940B14023A0EB0A0003FAA6
:101FDC0000F0049B01340343049314F8011B062204
:101FEC0026488DF8281000F0E5F9002838D0244B4D
:101FFC001BBB039B073323F0070308330393099B95
:10200C003344099367E70C4601200CFB0232A5E729
:10201C0000234FF00A0C194601340593204610F8A2
:10202C00012B303A092A03D9002BC5D00591C3E7FF
:10203C00044601230CFB0121F0E703AB00932A4675
:10204C003846104B04A9AFF30080421C0646D6D18B
:10205C00AB895B063FF52CAF09981DB0BDE8F08F3E
:10206C0003AB00932A463846064B04A900F07CF8D3
:10207C00EBE700BFE2260008E8260008EC26000883
:10208C0000000000DD1D00082DE9F04716469946BA
:10209C008A680B6907469342B8BF1346336091F8C0
:1020AC0043200C46DDF820800AB1013333602368ED
:1020BC00990642BF336802333360256815F0060574
:1020CC0006D104F1190AE36832689B1AAB4228DC8A
:1020DC0094F84320131E226818BF012392062DD4B6
:1020EC004946384604F14302C047013020D02368EA
:1020FC00E56803F00603042B18BF002532684FF087
:10210C000006A36808BFAD1A226908BF25EAE57569
:10211C009342C4BF9B1AED181A34B5421AD1002051
:10212C0008E00123524649463846C047013003D1E6
:10213C004FF0FF30BDE8F0870135C4E73020E118DF
:10214C0081F843005A1C94F845102244023382F85B
:10215C004310C5E70123224649463846C0470130A3
:10216C00E6D00136D9E700002DE9FF470F7E9146F6
:10217C00782F80460C469A460C9D01F1430207D8F5
:10218C00622F0AD8002F00F0D980582F00F0A480BD
:10219C0004F1420584F842703AE0A7F16303152B71
:1021AC00F6D801A151F823F00D22000821220008D5
:1021BC009D2100089D2100089D2100089D210008FB
:1021CC00212200089D2100089D2100089D21000866
:1021DC009D2100082F23000851220008112300081C
:1021EC009D2100089D210008512300089D21000815
:1021FC00512200089D2100089D2100081923000888
:10220C002B681A1D1B682A6004F1420584F84230C1
:10221C000123A4E020682968060601F104030AD50D
:10222C000E682B60002E03DA2D23764284F843309F
:10223C000A235E4819E00E6810F0400F2B6018BF9F
:10224C0036B2EFE72B682068191D2960010601D50D
:10225C001E6802E04606FBD51E886F2F0CBF0823B4
:10226C000A235248002184F843106568002DA8BF4A
:10227C002168A560A4BF21F0040121600EB9002DD6
:10228C004DD01546B6FBF3F103FB1167C75D05F89E
:10229C00017D3746BB420E46F4D9082B0BD123687F
:1022AC00DE0708D5236961689942DEBF302305F843
:1022BC00013C05F1FF35521B22614B46214640463D
:1022CC00CDF800A003AAFFF7DFFE01304CD14FF090
:1022DC00FF3004B0BDE8F087344881F845702968B8
:1022EC00236851F8046B29601D0614D5DF0744BF21
:1022FC0043F0200323601EB9236823F020032360DE
:10230C001023AFE7236843F0200323607823284889
:10231C0084F84530E3E7590648BFB6B2E6E7154600
:10232C00BBE72B682668181D6169286035061B6899
:10233C0001D5196002E07006FBD519800023154603
:10234C002361BAE72B6800211A1D2A601D68626898
:10235C00284600F02FF808B1401B606063682361C9
:10236C00002384F84330A8E72A46494640462369AF
:10237C00D0470130ABD023689B0713D4E068039B94
:10238C009842B8BF1846A4E7012332464946404656
:10239C00D04701309BD00135E36803995B1AAB42FF
:1023AC00F2DCEBE7002504F11906F5E7F32600084B
:1023BC0004270008034610B5C9B2024493421846DC
:1023CC0001D1002003E0047801338C42F6D110BD1A
:1023DC000A44914200F1FF3300D1704710B511F857
:1023EC00014B914203F8014FF9D110BD884210B551
:1023FC0001EB020402D98442234607D8431EA142B2
:10240C0008D011F8012B03F8012FF8E7014602441C
:10241C008A4200D110BD13F8014D02F8014DF7E7C7
:10242C0038B50546002940D051F8043C0C1F002B50
:10243C00B8BFE41800F010F91C4A136833B9636094
:10244C0014602846BDE8384000F00CB9A34208D906
:10245C00206821188B4201BF19685B68091821603C
:10246C00EDE71A465B680BB1A342FAD91168501814
:10247C00A0420BD120680144501883421160E0D176
:10248C0018685B68014411605360DAE702D90C23C9
:10249C002B60D6E7206821188B4201BF19685B6856
:1024AC000918216063605460CBE738BD140100202B
:1024BC0070B50E4E0C463168054611B900F0BCF8EB
:1024CC0030602146284600F0B7F8431C0AD0C41CE3
:1024DC0024F00304A04207D0211A284600F0ACF8DF
:1024EC00013001D14FF0FF34204670BD180100209F
:1024FC002DE9F041CD1C25F0030508350C2D38BF16
:10250C000C25002D074601DBA94205D90C2300261A
:10251C003B603046BDE8F0812E4E00F09DF83368EC
:10252C001C4634BB29463846FFF7C2FF431C044601
:10253C004DD134682646002E40D1236831463846AA
:10254C0004EB030800F078F880453AD12168033594
:10255C006D1A25F0030508350C2D38BF0C253846AF
:10256C002946FFF7A5FF01302BD023682B442360AD
:10257C000EE02268521B1ED40B2A16D96119A342F5
:10258C00256018BF5960636808BF316062514B60A9
:10259C00384604F10B0600F065F826F00706231DFB
:1025AC00F21AB6D09B1BA350B3E76268A3420CBFD0
:1025BC0032605A60ECE723466468B2E734467668CA
:1025CC00B9E70C2338463B6000F04CF8A1E72560D6
:1025DC00DEE700BF140100202DE9F04180461446CF
:1025EC000E4621B91146BDE8F041FFF781BF2AB96B
:1025FC00FFF716FF25462846BDE8F08100F038F8B5
:10260C008442074602D8B4EB500F12D821464046FC
:10261C00FFF76EFF05460028EDD0BC42224631463E
:10262C0028BF3A46FFF7D4FE31464046FFF7F8FE86
:10263C00E1E73546DFE7000038B50023054D0446D9
:10264C0008462B60FEF7FCF9431C02D12B6803B142
:10265C00236038BD1C010020014800F011B800BFF8
:10266C0020010020014800F00CB800BF2001002020
:10267C0051F8043C181F002BBCBF0B58C0187047F6
:10268C0070477047F8B500BFF8BC08BC9E46704751
:0C269C00F8B500BFF8BC08BC9E467047B3
:1026A8004B4559505245535345443A25730A000047
:1026B80000000000000000000102030406070809EA
:1026C80000000000010203040203040506070809CC
:1026D8000A0B0C0D0E0F10100102232D302B2000B9
:1026E800686C4C00656667454647003031323334C4
:1026F8003536373839414243444546003031323364
:102708003435363738396162636465660000000025
:042718003101000883
:04271C000D010008A3
:102720000024F40010000000010000001000002050
:102730000000000000000000000000000000000099
:102740000000000000000000000000000000000089
:102750000000000000000000000000000000000079
:102760000000000000000000000000000000000069
:102770000000000000000000000000000000000059
:102780000000000000000000000000000000000049
:0400000508000AC520
:00000001FF
