:020000040800F2
:1000000000280020D5100008E90F0008EB0F0008B9
:10001000ED0F0008EF0F0008F10F000800000000CE
:10002000000000000000000000000000F30F0008C6
:10003000F50F000800000000F70F0008F90F000896
:100040001D1100081D1100081D1100081D110008D8
:100050001D1100081D1100081D1100081D110008C8
:100060001D1100081D1100081D1100081D110008B8
:100070001D1100081D1100081D1100081D110008A8
:100080001D1100081D1100081D1100081D11000898
:100090001D1100081D1100081D110008FD0F0008AA
:1000A0001D1100081D1100081D1100081D11000878
:1000B0001D1100081D110008000000001D1100089E
:1000C0001D11000800000000000000001D110008C4
:1000D000000000001D1100081D11000800000000B4
:1000E0001D1100081D1100081D110008000000006E
:1000F0000000000000000000000000000000000000
:0C01000000000000000000005FF808F1A3
:1001100010B5054C237833B9044B13B10448AFF341
:1001200000800123237010BDDC01002000000000CE
:100130004049000808B5034B1BB103490348AFF31E
:10014000008008BD00000000E001002040490008D8
:10015000034613F8012B002AFBD1181A0138704707
:1001600081F0004102E000BF83F0004330B54FEA68
:1001700041044FEA430594EA050F08BF90EA020FD5
:100180001FBF54EA000C55EA020C7FEA645C7FEA68
:10019000655C00F0E2804FEA5454D4EB5555B8BF8B
:1001A0006D420CDD2C4480EA020281EA030382EAFC
:1001B000000083EA010180EA020281EA0303362D8E
:1001C00088BF30BD11F0004F4FEA01314FF4801C61
:1001D0004CEA113102D0404261EB410113F0004F73
:1001E0004FEA03334CEA133302D0524263EB43032A
:1001F00094EA050F00F0A780A4F10104D5F1200EC8
:100200000DDB02FA0EFC22FA05F2801841F1000122
:1002100003FA0EF2801843FA05F359410EE0A5F1F6
:1002200020050EF1200E012A03FA0EFC28BF4CF027
:10023000020C43FA05F3C01851EBE37101F00045DD
:1002400007D54FF0000EDCF1000C7EEB00006EEBEA
:100250000101B1F5801F1BD3B1F5001F0CD3490874
:100260005FEA30004FEA3C0C04F101044FEA4452CB
:1002700012F5800F80F09A80BCF1004F08BF5FEA52
:10028000500C50F1000041EB045141EA050130BD32
:100290005FEA4C0C404141EB0101013C28BFB1F544
:1002A000801FE9D291F0000F04BF01460020B1FA8F
:1002B00081F308BF2033A3F10B03B3F120020CDA62
:1002C0000C3208DD02F1140CC2F10C0201FA0CF040
:1002D00021FA02F10CE002F11402D8BFC2F1200CA5
:1002E00001FA02F120FA0CFCDCBF41EA0C0190405B
:1002F000E41AA2BF01EB0451294330BD6FEA0404A4
:100300001F3C1CDA0C340EDC04F11404C4F120028E
:1003100020FA04F001FA02F340EA030021FA04F3A0
:1003200045EA030130BDC4F10C04C4F1200220FAF7
:1003300002F001FA04F340EA0300294630BD21FA35
:1003400004F0294630BD94F0000F83F4801306BFFB
:1003500081F480110134013D4EE77FEA645C18BFEF
:100360007FEA655C29D094EA050F08BF90EA020F86
:1003700005D054EA000C04BF1946104630BD91EA7E
:10038000030F1EBF0021002030BD5FEA545C05D181
:100390004000494128BF41F0004130BD14F58004C0
:1003A0003CBF01F5801130BD01F0004545F0FE4134
:1003B00041F470014FF0000030BD7FEA645C1ABF69
:1003C000194610467FEA655C1CBF0B46024650EAA0
:1003D000013406BF52EA033591EA030F41F40021CC
:1003E00030BD00BF90F0000F04BF0021704730B552
:1003F0004FF4806404F132044FF000054FF0000127
:1004000050E700BF90F0000F04BF0021704730B5E7
:100410004FF4806404F1320410F0004548BF4042BC
:100420004FF000013EE700BF42004FEAE2014FEA11
:1004300031014FEA02701FBF12F07F4393F07F4FEC
:1004400081F06051704732F07F4208BF704793F0EF
:100450007F4F04BF41F40021704730B54FF4607402
:1004600001F0004521F000411CE700BF50EA010205
:1004700008BF704730B54FF000050AE050EA0102AE
:1004800008BF704730B511F0004502D5404261EB1E
:1004900041014FF4806404F132045FEA915C3FF45F
:1004A000D8AE4FF003025FEADC0C18BF03325FEAFC
:1004B000DC0C18BF033202EBDC02C2F1200300FAAD
:1004C00003FC20FA02F001FA03FE40EA0E0021FAD2
:1004D00002F11444BDE600BF70B54FF0FF0C4CF4C0
:1004E000E06C1CEA11541DBF1CEA135594EA0C0F72
:1004F00095EA0C0F00F0DEF82C4481EA030621EAAD
:100500004C5123EA4C5350EA013518BF52EA0335E7
:1005100041F4801143F4801338D0A0FB02CE4FF099
:100520000005E1FB02E506F00042E0FB03E54FF0C9
:100530000006E1FB03569CF0000F18BF4EF0010EC1
:10054000A4F1FF04B6F5007F64F5407404D25FEABD
:100550004E0E6D4146EB060642EAC62141EA555170
:100560004FEAC52040EA5E504FEACE2EB4F1FD0CB2
:1005700088BFBCF5E06F1ED8BEF1004F08BF5FEA30
:10058000500E50F1000041EB045170BD06F00046E2
:1005900046EA010140EA020081EA0301B4EB5C048F
:1005A000C2BFD4EB0C0541EA045170BD41F4801187
:1005B0004FF0000E013C00F3AB8014F1360FDEBFAC
:1005C000002001F0004170BDC4F10004203C35DA88
:1005D0000C341BDC04F11404C4F1200500FA05F30B
:1005E00020FA04F001FA05F240EA020001F00042AC
:1005F00021F0004110EBD37021FA04F642EB060122
:100600005EEA430E08BF20EAD37070BDC4F10C044B
:10061000C4F1200500FA04F320FA05F001FA04F20F
:1006200040EA020001F0004110EBD37041F10001FB
:100630005EEA430E08BF20EAD37070BDC4F1200506
:1006400000FA05F24EEA020E20FA04F301FA05F26E
:1006500043EA020321FA04F001F0004121FA04F216
:1006600020EA020000EBD3705EEA430E08BF20EAE6
:10067000D37070BD94F0000F0FD101F00046400020
:1006800041EB010111F4801F08BF013CF7D041EAA2
:10069000060195F0000F18BF704703F000465200A6
:1006A00043EB030313F4801F08BF013DF7D043EA77
:1006B0000603704794EA0C0F0CEA135518BF95EA2D
:1006C0000C0F0CD050EA410618BF52EA4306D1D1B4
:1006D00081EA030101F000414FF0000070BD50EAD3
:1006E000410606BF1046194652EA430619D094EA5D
:1006F0000C0F02D150EA013613D195EA0C0F05D147
:1007000052EA03361CBF104619460AD181EA03019A
:1007100001F0004141F0FE4141F470014FF0000052
:1007200070BD41F0FE4141F4780170BD70B54FF0ED
:10073000FF0C4CF4E06C1CEA11541DBF1CEA13556D
:1007400094EA0C0F95EA0C0F00F0A7F8A4EB05044F
:1007500081EA030E52EA03354FEA013100F0888046
:100760004FEA03334FF0805545EA131343EA12630F
:100770004FEA022245EA111545EA10654FEA0026C4
:100780000EF000419D4208BF964244F1FD0404F57D
:10079000407402D25B084FEA3202B61A65EB0305D9
:1007A0005B084FEA32024FF480104FF4002CB6EB96
:1007B000020E75EB030E22BFB61A754640EA0C0016
:1007C0005B084FEA3202B6EB020E75EB030E22BF56
:1007D000B61A754640EA5C005B084FEA3202B6EB97
:1007E000020E75EB030E22BFB61A754640EA9C0056
:1007F0005B084FEA3202B6EB020E75EB030E22BF26
:10080000B61A754640EADC0055EA060E18D04FEAE3
:10081000051545EA16754FEA06164FEAC30343EA83
:1008200052734FEAC2025FEA1C1CC0D111F4801F50
:100830000BD141EA00014FF000004FF0004CB6E749
:1008400011F4801F04BF01430020B4F1FD0C88BFE8
:10085000BCF5E06F3FF6AFAEB5EB030C04BFB6EBF3
:10086000020C5FEA500C50F1000041EB045170BDE6
:100870000EF0004E4EEA113114EB5C04C2BFD4EB13
:100880000C0541EA045170BD41F480114FF0000E97
:10089000013C90E645EA060E8DE60CEA135594EA13
:1008A0000C0F08BF95EA0C0F3FF43BAF94EA0C0F16
:1008B0000AD150EA01347FF434AF95EA0C0F7FF48B
:1008C00025AF104619462CE795EA0C0F06D152EADF
:1008D00003353FF4FDAE1046194622E750EA4106C3
:1008E00018BF52EA43067FF4C5AE50EA41047FF4D4
:1008F0000DAF52EA43057FF4EBAE12E74FF0FF3C39
:1009000006E000BF4FF0010C02E000BF4FF0010C09
:100910004DF804CD4FEA410C7FEA6C5C4FEA430C82
:1009200018BF7FEA6C5C1BD001B050EA410C0CBFD1
:1009300052EA430C91EA030F02BF90EA020F002033
:10094000704710F1000F91EA030F58BF994208BF9A
:1009500090422CBFD8176FEAE37040F00100704757
:100960004FEA410C7FEA6C5C02D150EA013C07D1AE
:100970004FEA430C7FEA6C5CD6D152EA033CD3D0F9
:100980005DF8040B704700BF8446104662468C46F3
:100990001946634600E000BF01B5FFF7B7FF002826
:1009A00048BF10F1000F01BD4DF808EDFFF7F4FF4F
:1009B0000CBF012000205DF808FB00BF4DF808EDDA
:1009C000FFF7EAFF34BF012000205DF808FB00BFFD
:1009D0004DF808EDFFF7E0FF94BF012000205DF81F
:1009E00008FB00BF4DF808EDFFF7CEFF94BF0120D4
:1009F00000205DF808FB00BF4DF808EDFFF7C4FFCD
:100A000034BF012000205DF808FB00BF4FEA410C15
:100A10007FEA6C5C02D150EA013C0AD14FEA430CF8
:100A20007FEA6C5C02D152EA033C02D14FF0000035
:100A300070474FF0010070474FEA410212F5001273
:100A400015D211D56FF47873B3EB625212D94FEA15
:100A5000C12343F0004343EA505311F0004F23FAFF
:100A600002F018BF404270474FF00000704750EA54
:100A7000013005D111F0004008BF6FF00040704711
:100A80004FF00000704700BF00B591B02422002154
:100A900007A801F073F81422002101A801F06EF8F4
:100AA000022301210693102306A8CDE90A1300F0C2
:100AB000D3FC014608B172B6FEE70F23CDE903006F
:100AC000CDE90130059001A800F088FE08B172B6AA
:100AD000FEE711B05DF804FB80B588B000F044FB80
:100AE000FFF7D2FF10220024012502274FF4004611
:100AF00000210DEB020001F041F8384B4FF40041AA
:100B00009A69374842F020029A619A6902F02002FD
:100B10000192019A9A6942F004029A619A6902F07C
:100B200004020292029A9A6942F008029A619B6951
:100B3000002203F008030393039B00F07BFC0022D8
:100B40003821284800F076FC254804A9CDE9046541
:100B5000CDE9064700F092FB3823224804A9CDE9ED
:100B60000435CDE9064700F089FB4FF470721E4B47
:100B70001C4804A9CDE90423069400F07FFB21461C
:100B80002246172000F026FB172000F055FB4FF4FB
:100B9000165316481649C0E90244C0E900130C2355
:100BA0000461C0E90534C46100F044FF08B172B6C5
:100BB000FEE72A4631460A4800F03CFC2A46082156
:100BC000084800F037FC2A461021064800F032FCA5
:100BD0002A462021034800F02DFCFEE700100240C9
:100BE00000080140000C0140000011102C02002000
:100BF000003801402DE9F341044600F0D3FABA4F22
:100C0000DFF8E8823B68C8F80000C01A0A2840F202
:100C1000E58000264FF47073B54DB648C5E900363F
:100C200002232946EB60AE6000F028FB01224FF45E
:100C30000041B14800F0FEFB32460821AD4800F00B
:100C4000F9FB32461021AB4800F0F4FB324620217C
:100C5000A84800F0EFFB402C40F0C3802146A54897
:100C600000F0E2FB80B14423A44901AAA4488DF816
:100C7000043001F0EBFBA248FFF76AFA192382B2B5
:100C80009F49A04800F005FF00224FF400419A4818
:100C900000F0D0FB01220821964800F0CBFB002297
:100CA0001021944800F0C6FB00222021914800F05A
:100CB000C1FB402C40F0B98021468E4800F0B4FBC7
:100CC00080B123238D4901AA8D488DF8043001F0AD
:100CD000BDFB8B48FFF73CFA192382B2884989484B
:100CE00000F0D7FE00224FF40041834800F0A2FB41
:100CF000002208217F4800F09DFB012210217D4841
:100D000000F098FB002220217A4800F093FB402C51
:100D100040F0AF802146774800F086FB80B1302359
:100D2000764901AA76488DF8043001F08FFB7448AB
:100D3000FFF70EFA192382B27149724800F0A9FE3A
:100D400000224FF400416C4800F074FB002208219F
:100D5000684800F06FFB00221021664800F06AFB33
:100D600001222021634800F065FB402C40F0A58063
:100D70002146604800F058FB80B12A235F4901AA50
:100D80005F488DF8043001F061FB5D48FFF7E0F942
:100D9000192382B25A495B4800F07BFE01224FF4CE
:100DA0000041554800F046FB01220821514800F05F
:100DB00041FB012210214F4800F03CFB0122202181
:100DC0004C4800F037FB02234F4A49494948C5E9DE
:100DD000012300F053FAD8F800303B6002B0BDE8C0
:100DE000F081802C08D12146424800F01DFB0028EC
:100DF0003FF44AAF432337E7B4F5807F08D121465B
:100E00003C4800F011FB00283FF43EAF42232BE7A3
:100E1000B4F5007F7FF438AF2146364800F004FB7C
:100E200000283FF431AF41231EE7802C08D1214632
:100E3000304800F0F9FA00283FF454AF392341E775
:100E4000B4F5807F08D121462A4800F0EDFA002849
:100E50003FF448AF362335E7B4F5007F7FF442AF67
:100E60002146244800F0E0FA00283FF43BAF33234A
:100E700028E7802C08D121461E4800F0D5FA00282A
:100E80003FF45EAF38234BE7B4F5807F08D12146AD
:100E9000184800F0C9FA00283FF452AF35233FE765
:100EA000B4F5007F7FF44CAF2146124800F0BCFA45
:100EB00000283FF445AF322332E7802C08D1214689
:100EC0000C4800F0B1FA00283FF468AF372355E72B
:100ED000B4F5807F1AD12146064800F0A5FA002813
:100EE0003FF45CAF342349E774020020280200205D
:100EF000F8010020000C014000080140584900089A
:100F0000080200202C02002000001110B4F5007F20
:100F10007FF444AF2146044800F086FA00283FF4ED
:100F20003DAF31232AE700BF000C01400E4B82B0D9
:100F30009A6942F001029A619A6902F001020092F4
:100F4000009ADA6942F08052DA61DB69074A03F0FD
:100F500080530193019B536823F0E06343F00073D7
:100F6000536002B0704700BF001002400000014013
:100F700010B5044686B01022002102A800F0FEFD44
:100F80002268174B9A4228D103F558439A691548AD
:100F900042F480429A619A6902A902F48042009266
:100FA000009A9A6942F004029A619B694FF40072B8
:100FB00003F004030193019B0223CDE902230323E1
:100FC000059300F05BF94FF4806100230548CDE9FB
:100FD000021302A9049300F051F906B010BD00BF3E
:100FE0000038014000080140FEE7FEE7FEE7FEE7AB
:100FF000FEE770477047704700F0C8B808B540205A
:1010000000F01EFA802000F01BFA4FF4807000F010
:1010100017FABDE808404FF4007000F011BA012043
:10102000704708B500F080FD162303604FF0FF30D5
:1010300008BD08B500F078FD16230360FEE770B523
:101040000D4614460E46731B9C4201DC204670BDC3
:10105000AFF3008006F8010BF5E770B50D461446B6
:101060000E46731B9C4201DC204670BD16F8010B36
:10107000AFF30080F5E74FF0FF3070474FF40053B7
:1010800000204B607047012070470020704700002F
:101090000B4A0346116810B509B90A491160106876
:1010A00009490A4C0344091B8B4206D900F03CFD58
:1010B0000C2303604FF0FF3010BD1360FCE700BF4E
:1010C0007802002090020020002800200004000088
:1010D00070470000FFF7FCFF0B480C490C4A002347
:1010E00002E0D458C4500433C4188C42F9D3094ADE
:1010F000094C002301E013600432A242FBD300F04C
:1011000019FDFFF7E9FC704700000020DC0100201A
:10111000744D0008DC01002090020020FEE7000072
:1011200038B50E4B054618784FF47A73B3FBF0F3DD
:101130000B4A1068B0FBF3F000F08CF8044658B985
:101140000F2D09D8024629464FF0FF3000F042F833
:101150002046044B1D6038BD0120FCE70400002040
:101160000000002008000020074A08B5136803208B
:1011700043F01003136000F01BF80F20FFF7D0FFBF
:10118000FFF7D4FE002008BD00200240034A044BB4
:1011900011681B780B441360704700BF7C0200206D
:1011A00004000020014B1868704700BF7C0200203B
:1011B00007490302CA6803F4E06322F4E062120400
:1011C000120C134343F0BF6343F40033CB6070470A
:1011D00000ED00E0164B30B5DC68C4F30224C4F126
:1011E0000703251D042B28BF0423062D4FF0FF35D0
:1011F00098BF002405FA03F388BF033C21EA0303E8
:10120000A34005FA04F422EA0402002843EA020398
:10121000ACBF00F16040074A4FEA0313DBB2ABBF3B
:1012200000F5614000F00F0080F80033135430BD2A
:1012300000ED00E014ED00E0002808DB0123420986
:1012400000F01F0003FA00F0014B43F82200704742
:1012500000E100E00138B0F1807F0BD24FF0E023D5
:10126000F021054A586182F8231000200722986176
:101270001A6170470120704700ED00E02DE9F74F3B
:1012800000221646614F624BDFF888C1DFF888E123
:101290000D6835FA06F402D103B0BDE8F08F4FF0C7
:1012A000010808FA06F805EA080438EA050577D1C6
:1012B0004D68032D07D8013D022D00F28280DFE842
:1012C00005F092979D00122D00F095806AD8112D9F
:1012D00000F08B80FF2C98BF82464FF00F0988BF2B
:1012E00000F1040A4FEA8605DAF8008088BF203D45
:1012F00009FA05FB28EA0B0802FA05F548EA050594
:10130000CAF80050D1F804A01AF0805F48D0BD6937
:1013100026F0030845F00105BD61BD6908F180486C
:1013200005F00105019508F5803806F0030B019DD5
:101330004FEA8B0BD8F8085009FA0BF925EA09098E
:10134000364DA8425ED005F58065A8425CD005F513
:101350008065A8420CBF0225032505FA0BF545EA76
:101360000905C8F808509D681AF4801F14BF25436A
:10137000A5439D60DD681AF4001F14BF2543A543F3
:10138000DD605D681AF4003F14BF2543A5435D602E
:101390001D681AF4803F14BF2C4325EA04041C6026
:1013A000013675E7DFF878904D450AD015D87545B8
:1013B00007D0A9F580394D4503D0A9F580194D45D1
:1013C00088D18A68E2B1012A08BFC0F810804FF0C6
:1013D000080218BFC0F814807CE7DFF848904D453C
:1013E000EFD06545ECE7CA6874E7CA68043271E774
:1013F000CA6808326EE7CA680C326BE7002269E7F8
:10140000042267E70025A8E70125A6E700100240AF
:1014100000040140000032100000121000080140DA
:1014200000002210000031108368194214BF01200F
:10143000002070470AB1016170470904FBE7000012
:10144000044A08B55169014202D05061FFF7D2FB4E
:1014500008BD00BF000401402DE9F341054638B343
:101460000368DB0710D42B689F075ED42B6819072D
:1014700000F195802B685A0700F1C180E8690028C7
:1014800040F02C81002029E0904C636803F00C03AD
:10149000042B07D0636803F00C03082B0AD16368A0
:1014A000DE0307D523689C03DDD56B68002BDAD1FA
:1014B000012013E06B68B3F5803F12D1236843F439
:1014C00080332360FFF76EFE064623689803CAD474
:1014D000FFF768FE801B6428F7D9032002B0BDE83F
:1014E000F0819BB9236823F480332360236823F4BD
:1014F00080232360FFF756FE064623689903B2D582
:10150000FFF750FE801B6428F7D9E6E7B3F5A02F5C
:10151000236803D143F480232360CFE723F480338F
:101520002360236823F48023CBE7684C636813F0BF
:101530000C0F07D0636803F00C03082B10D163680D
:10154000DA030DD423689B0702D52B69012BAFD199
:1015500023686A6923F0F80343EAC203236085E73E
:101560002A695B4B6AB101221A60FFF71BFE06462F
:1015700023689F07ECD4FFF715FE801B0228F7D9DC
:10158000ABE71A60FFF70EFE0646236898077FF563
:101590006DAFFFF707FE801B0228F6D99DE7AA6909
:1015A0004A4E4B4BE2B10122C3F88024FFF7FAFD0B
:1015B0000446736A9B070DD54FF4FA52454B1B68DE
:1015C000B3FBF2F3019300BF019B5A1E0192002B63
:1015D000F9D14FE7FFF7E6FD001B0228E9D97CE7C8
:1015E000C3F88024FFF7DEFD0446736A9F077FF58A
:1015F00041AFFFF7D7FD001B0228F6D96DE7334C4A
:10160000E369D80024D40127E36943F08053E36100
:10161000E36903F080530093009B2F4E3368D90594
:1016200018D5EB68012B26D1236A43F0010323620E
:10163000FFF7B8FD41F288380646236A9B073FD57D
:10164000002F3FF41BAFE36923F08053E36115E7FC
:101650000027E2E7336843F480733360FFF7A2FDAD
:1016600080463368DA05DCD4FFF79CFDA0EB080068
:101670006428F6D931E7ABB9236A41F2883823F000
:1016800001032362236A23F004032362FFF78AFD28
:101690000646236A9807D3D5FFF784FD801B404593
:1016A000F7D91AE7052B236A03D143F00403236219
:1016B000BAE723F001032362236A23F00403B6E7A9
:1016C000FFF770FD801B4045B7D906E700100240C8
:1016D0000000424200000020007000402A4C636875
:1016E00003F00C03082B3ED00022284B02281A6678
:1016F0002CD1FFF757FD06462368990120D42B6AA9
:10170000B3F5803F05D16268A96822F400320A432C
:101710006260696A62680B4322F474121343012207
:1017200063601A4B1A66FFF73DFD054623689A0170
:101730003FF5A8AEFFF736FD401B0228F6D9CCE6F0
:10174000FFF730FD801B0228D6D9C6E6FFF72AFD39
:10175000054623689B017FF595AEFFF723FD401BEF
:101760000228F6D9B9E601283FF4B8AE63682A6AC0
:1017700003F4803191427FF49BAE6A6A03F47013E4
:1017800093423FF47FAE93E60010024000004242D5
:101790000D4A536803F00C01082912D10B48C3F31A
:1017A0008341DB03405C09D55368094AC3F34043D6
:1017B0005043084AD35CB0FBF3F07047064B5843E4
:1017C00070470348704700BF001002407F4900087F
:1017D00000127A008F49000800093D002DE9F04110
:1017E0000D46044610B90120BDE8F081444A136853
:1017F00003F007038B4228D321688E0730D4CA0731
:1018000043D43F4A136803F00703AB4265D822680C
:101810003C4D12F0040F6CD1130706D56B6822699A
:1018200023F4605343EAC2036B60FFF7B1FF6B68B8
:10183000354AC3F30313D35CD840344B1860344BA0
:101840001868FFF76DFC0020CEE7136823F007034C
:101850000B431360136803F007038B42C3D1CBE73C
:10186000284B11F0040F1EBF5A6842F4E0625A6020
:10187000080742BF5A6842F460525A605A68A0682A
:1018800022F0F00202435A60B9E762681D4E012A55
:1018900033681AD113F4003FA5D0736841F2883839
:1018A00023F0030313437360FFF77CFC0746736860
:1018B000626803F00C03B3EB820FA2D0FFF772FC57
:1018C000C01B4045F3D903208EE7022A02D113F052
:1018D000007FE1E713F0020FDEE7136823F0070350
:1018E0002B431360136803F00703AB427FF47BAF15
:1018F0008DE76B68E16823F4E0630B436B608BE773
:10190000002002400010024067490008000000204B
:1019100008000020044B054A5B68C3F30223D35C34
:10192000034A1068D8407047001002407749000809
:1019300000000020044B054A5B68C3F3C223D35C5C
:10194000034A1068D84070470010024077490008E9
:101950000000002010B504460368C1681A6922F42B
:1019600040520A431A6182680069D968024360697B
:1019700021F4B05121F00C0102430A43DA605A69A4
:10198000A16922F440720A435A610E4A934215D16A
:10199000FFF7D0FF19234343626820689200B3FB2E
:1019A000F2F36422B3FBF2F102FB11331B01323379
:1019B000B3FBF2F303EB0113836010BDFFF7AAFF43
:1019C000E8E700BF00380140F8B504460E46174668
:1019D0001D462268136836EA030301D1002028E07F
:1019E0006B1CF7D025B1FFF7DDFBC01B8542F0D2A1
:1019F000226802F10C0353E8003F23F4D0730C3249
:101A000042E8003021680028F2D101F1140353E8C4
:101A1000003F23F0010301F1140040E80032002AE6
:101A2000F3D12023032084F8413084F8402084F847
:101A30004230F8BD10B5044648B390F8413003F089
:101A4000FF021BB980F84020FFF792FA2423226896
:101A500084F84130D368204623F40053D360FFF765
:101A600079FF236800201A6922F490421A615A69AA
:101A700022F02A025A61DA6842F40052DA60202326
:101A8000606484F8413084F84230606310BD012006
:101A9000FCE72DE9F843994690F841300446202BA5
:101AA0000E4617463CD100293CD0002A3AD02123CB
:101AB0000025456480F84130FFF774FBA368804639
:101AC000B3F5805FA784E78403D123690BB935465A
:101AD0001E46E38C9BB253B94B46424640212046FA
:101AE000FFF772FF50B9202384F8413007E04B46DE
:101AF000424680212046FFF767FF10B10320BDE872
:101B0000F88322684EB935F8023BC3F308035360EB
:101B1000E18C013989B2E184DBE716F8013BF6E795
:101B20000220ECE70120EAE7014B1868704700BF8C
:101B30000C00002070B500260C4D0D4C641BA41049
:101B4000A64209D102F0FCFE00260A4D0A4C641B95
:101B5000A410A64205D170BD55F8043B9847013644
:101B6000EEE755F8043B98470136F2E76C4D000864
:101B70006C4D00086C4D0008704D0008034602448F
:101B8000934200D1704703F8011BF9E7002B2DE9C0
:101B9000F0471F46BBBF03F100431F4600232D2320
:101BA00088B01446129A109D1370149BDDF84CA057
:101BB00023F02008B8F1460F05D0B8F1450F00D149
:101BC0000135022300E0032307AA049206AACDE907
:101BD00002A2CDE9003522463B4600F0E5FCB8F113
:101BE000470F064602D1119BDB0722D5B8F1460FFD
:101BF00006EB050910D13378302B0AD100220023DF
:101C000020463946FEF7D0FE18B9C5F10105CAF8DD
:101C10000050DAF80030994400220023204639466B
:101C2000FEF7C2FE08B1CDF81C903022079B4B4551
:101C300007D33046079B159A9B1B136008B0BDE87D
:101C4000F087591C07911A70F0E70346F7B5002991
:101C500003F8022BB6BF2D222B22494209294270DC
:101C60002BDD0DF10704A4460A2791FBF7F60A467F
:101C7000A64607FB1615632A05F13005314604F127
:101C8000FF340EF8015CF0DC3031AEF1020504F8EF
:101C9000011C2946441C61450AD30DF10902A2EB3F
:101CA0000E02654588BF00221344181A03B0F0BD28
:101CB00011F8012B04F8012FEDE730233031837048
:101CC000C170031DF1E700002DE9F04F91B00C4603
:101CD000DDF8688016461F46054601F053FA036892
:101CE00018460993FEF734FA00230E93D8F8003013
:101CF0000A90073323F0070303F1080294F81890C1
:101D0000D4F800B0C8F80020D3E90023C4E91223B6
:101D1000D4E9128A2AF000430B934FF0FF32404679
:101D20009C4B0B99FEF772FE70BB4FF0FF324046A2
:101D3000984B0B99FEF74CFE30BB00220023404627
:101D40005146FEF73BFE10B12D2384F84330924BF1
:101D50009248B9F1470F94BF9846804603234FF04D
:101D6000000A23612BF004032360334621462846F2
:101D700000970FAA00F0D4F9013040F090804FF0A6
:101D8000FF3011B0BDE8F08F424653464046514601
:101D9000FEF73CFE48B1BAF1000FB8BF2D238048D2
:101DA000B8BF84F843307F4BD3E7636809F0DF01A5
:101DB0005A1C42D106236360002206920EAACDE986
:101DC00004920DAA4BF4806303920DF13302CDE926
:101DD00001322360636842460093284653460B91C4
:101DE000FFF7D4FE0B99804647290D9908D1C81CEE
:101DF00002DB6368994240DDA9F102095FFA89F9C3
:101E0000B9F1650F1FD84A46013904F150000D9110
:101E1000FFF71BFF0E9A82461318012A236102DC8A
:101E20002268D20701D5013323619DF83330002B9E
:101E30009BD02D2384F8433097E74729BCD1002B52
:101E4000BAD10123B7E7B9F1660F18D10029636849
:101E50000BDD216113B92268D00702D501330B4491
:101E600023614FF0000AA165DFE713B92268D207AA
:101E700001D50233F4E70123F2E74FF067090E9B27
:101E8000994205DB23682161D807EAD54B1CE7E7B7
:101E90000029CCBF0122C1F102021344E0E723680C
:101EA0005A0507D42369424631462846B8470130CF
:101EB0002BD164E7B9F1650F40F2DD80D4E912015E
:101EC00000220023FEF770FD002833D001233146A5
:101ED0002846354AB84701303FF451AFDDE90D23BC
:101EE0009A4202DB2368D8070FD5DDE90923314682
:101EF0002846B84701303FF442AF4FF0000804F1E4
:101F00001A090E9B013B434509DC23689B0700F13E
:101F10000281E0680F9B9842B8BF184631E7012361
:101F20004A4631462846B84701303FF428AF08F109
:101F30000108E6E70D9B002B38DC012331462846DB
:101F4000194AB84701303FF41AAFDDE90D231343B6
:101F500002D12368D907D8D5DDE9092331462846BF
:101F6000B84701303FF40BAF4FF0000904F11A0AF3
:101F70000D9B5B424B4501DC0E9B94E701235246CF
:101F800031462846B84701303FF4F9AE09F101095E
:101F9000EEE700BFFFFFEF7F984900089C4900086B
:101FA000A4490008A0490008A84900080E9AA36D9A
:101FB0009A42A8BF1A46002A914637DC4FF0000B20
:101FC00029EAE97904F11A02D4F858A0AAEB090326
:101FD0005B4533DCDDE90D239A423BDB2368DA07FE
:101FE00038D40E9B0D99A3EB0A02A3EB010991458E
:101FF000A8BF9146B9F1000F34DC4FF0000829EA80
:10200000E97904F11A0ADDE90D239B1AA3EB090310
:1020100043457FF77AAF0123524631462846B847F9
:1020200001303FF4ACAE08F10108ECE7134631464D
:1020300042462846B8470130C0D1A0E601233146C8
:1020400028460B92B84701303FF499AE0B9A0BF13A
:10205000010BB9E73146DDE909232846B8470130CD
:10206000BFD18CE64B463146284608EB0A02B847FA
:102070000130C2D183E60E9A012A01DCDB0737D595
:102080000123424631462846B84701303FF477AE37
:10209000DDE9092331462846B84701303FF46FAEE9
:1020A000D4E9120100220023FEF77EFCD8B90E9B72
:1020B00008F10102013B31462846B84701300ED1F4
:1020C0005DE601234A4631462846B84701303FF4D1
:1020D00056AE08F101080E9B013B4345F1DC534627
:1020E00004F15002E0E64FF0000804F11A09F2E7AB
:1020F00001234246DFE701234A4631462846B847D6
:1021000001303FF43CAE08F10108E3680F995B1A17
:102110004345F0DCFDE64FF0000804F11909F4E74F
:102120002DE9F047164699468A680B69074693429F
:10213000B8BF1346336091F843200C46DDF8208089
:102140000AB1013333602368990642BF3368023312
:102150003360256815F0060506D104F1190AE36815
:1021600032689B1AAB4228DC94F84320131E226885
:1021700018BF012392062DD44946384604F1430284
:10218000C047013020D02368E56803F00603042B24
:1021900018BF002532684FF00006A36808BFAD1ACB
:1021A000226908BF25EAE5759342C4BF9B1AED1862
:1021B0001A34B5421AD1002008E00123524649469C
:1021C0003846C047013003D14FF0FF30BDE8F087FB
:1021D0000135C4E73020E11881F843005A1C94F817
:1021E00045102244023382F84310C5E701232246FA
:1021F00049463846C0470130E6D00136D9E70000ED
:102200002DE9FF470F7E9146782F80460C469A466F
:102210000C9D01F1430207D8622F0AD8002F00F06D
:10222000D980582F00F0A48004F1420584F8427050
:102230003AE0A7F16303152BF6D801A151F823F07A
:1022400099220008AD22000829220008292200084E
:102250002922000829220008AD22000829220008AE
:10226000292200082922000829220008BB2300088F
:10227000DD2200089D2300082922000829220008E9
:10228000DD23000829220008DD2200082922000899
:1022900029220008A52300082B681A1D1B682A6044
:1022A00004F1420584F842300123A4E02068296843
:1022B000060601F104030AD50E682B60002E03DA2E
:1022C0002D23764284F843300A235E4819E00E68D5
:1022D00010F0400F2B6018BF36B2EFE72B68206874
:1022E000191D2960010601D51E6802E04606FBD5CE
:1022F0001E886F2F0CBF08230A235248002184F840
:1023000043106568002DA8BF2168A560A4BF21F017
:10231000040121600EB9002D4DD01546B6FBF3F136
:1023200003FB1167C75D05F8017D3746BB420E46CA
:10233000F4D9082B0BD12368DE0708D5236961681F
:102340009942DEBF302305F8013C05F1FF35521BF1
:1023500022614B4621464046CDF800A003AAFFF774
:10236000DFFE01304CD14FF0FF3004B0BDE8F08704
:10237000344881F845702968236851F8046B296056
:102380001D0614D5DF0744BF43F0200323601EB9A8
:10239000236823F0200323601023AFE7236843F072
:1023A000200323607823284884F84530E3E7590662
:1023B00048BFB6B2E6E71546BBE72B682668181D8E
:1023C0006169286035061B6801D5196002E0700656
:1023D000FBD51980002315462361BAE72B6800213D
:1023E0001A1D2A601D686268284600F0D7FE08B1F1
:1023F000401B606063682361002384F84330A8E7D2
:102400002A46494640462369D0470130ABD023686D
:102410009B0713D4E068039B9842B8BF1846A4E713
:102420000123324649464046D04701309BD0013512
:10243000E36803995B1AAB42F2DCEBE7002504F199
:102440001906F5E7AA490008BB4900080EB46FF069
:10245000004100B59CB01DAB02900690079104911D
:102460000848094953F8042B0591006802A9019313
:1024700001F07EFB0022029B1A701CB05DF804EB99
:1024800003B070470C0000200802FFFF2DE9F74F52
:1024900003690C690746A342C0F28280013C00F147
:1024A000140501F1140805EB8403019358F8243056
:1024B00055F8242001339A42B2FBF3F64FEA840B1D
:1024C00008EB840931D34FF0000E4046AC46F2468B
:1024D00050F8042B93B206FB03E3120C4FEA134EA1
:1024E0009BB206FB02E2AAEB0303DCF800A04FEA72
:1024F000124E1FFA8AFA5344DCF800A092B2C2EBE3
:102500001A4202EB23429BB243EA024381454FEA5F
:10251000224A4CF8043BDBD255F80B302BB9019B17
:10252000043B9D421A462FD33C61384601F0D0F857
:10253000002825DB28464FF0000C013658F8041B14
:10254000D0F800E08BB2ACEB03031FFA8EF2134419
:102550000A0CC2EB1E4202EB23429BB243EA024347
:10256000C1454FEA224C40F8043BE7D255F82420FD
:1025700005EB840322B9043B9D421A460AD33C6111
:10258000304603B0BDE8F08F1268043B002ACBD17F
:10259000013CC6E71268043B002AF0D1013CEBE79E
:1025A0000020EEE7000000002DE9F04F16461F4620
:1025B000446A99B00546CDE90467DDF8948074B9A2
:1025C000102000F0E3FD0246686220B9EA21A84B22
:1025D000A84801F0DDFBC0E901440460C4606B6AF7
:1025E000196851B15A68012393404A608B602846AC
:1025F00000F030FE00226B6A1A603B1EAFBF002362
:10260000012223F000430593A8BFC8F80030DDF88D
:102610001490994BB8BFC8F8002033EA090319D1C8
:1026200042F20F73249A1360C9F31303334300F08B
:102630007F85269B53B9914B22E0914B039308333E
:10264000269A1360039819B0BDE8F08F8B4B039363
:102650000333F5E7DDE90434CDE90C34DDE90C01A1
:1026600000220023FEF7A0F9804658B10123249AE6
:102670001360269B002B00F0588582481860431E8B
:102680000393DFE716AB019317AB00932846DDE910
:102690000C2301F0C5F8C9F30A548346002C7FD0FF
:1026A000DDE90C010D9BA4F2FF34C3F3130343F0E7
:1026B0007F5141F44011CDF84C800022724BFDF760
:1026C00053FD65A3D3E90023FDF706FF64A3D3E917
:1026D0000023FDF74BFD064620460F46FDF792FE10
:1026E00061A3D3E90023FDF7F7FE02460B4630460F
:1026F0003946FDF73BFD06460F46FEF79DF90022E1
:102700008246002330463946FEF758F948B1504614
:10271000FDF778FE32463B46FEF746F908B90AF166
:10272000FF3ABAF1160F58D8DDE90C01574B03EB0D
:10273000CA03D3E90023FEF741F900284FD0002354
:102740000AF1FF3A0F93169B1C1B631E099349BFA6
:10275000C4F1010300230693002354BF0693099399
:10276000BAF1000F3DDB099BCDF838A05344099323
:1027700000230A93229B092B00F28C80052BC4BFF7
:10278000043B2293229BC8BF0024A3F10203D8BFBD
:102790000124032B00F28A80DFE803F02D4F4D5B0C
:1027A000DDE916431C4404F23243202BC3BFC3F1BE
:1027B000400304F2124009FA03F3C3F12003C6BF39
:1027C00026FA00F0184306FA03F0FDF70BFE01238A
:1027D000A1F1F871013C13936FE70123B2E70F9069
:1027E000B1E7069BA3EB0A030693CAF100030A9321
:1027F00000230E93BEE700230B93239B002B58DC92
:102800004FF001094B46CDF82090CDF88C90002276
:10281000686A4260042202F114069E4241684ED961
:10282000284600F0D7FC039000284CD102464FF414
:10283000D571174BCCE60123DEE700230B93239BD6
:102840000AEB030909F10103012B0893B8BF012327
:10285000DDE70123F2E700BF61436F63A787D23F43
:10286000B3C8608B288AC63FFB799F501344D33F7F
:10287000D9490008F04900080000F07FD549000858
:10288000CC490008A94900080000F83FE04A0008C8
:102890004B4A0008012400230B9422934FF0FF3988
:1028A00000221223CDF820902392B0E701230B934E
:1028B000F4E7DDF88C904B46CDF82090A7E7013186
:1028C00041605200A7E76B6A039A1A60089B0E2BBF
:1028D00000F2A880002C00F0A580BAF1000F34DDD2
:1028E0009A4A0AF00F0302EBC3031AF4807FD3E97C
:1028F0000034CDE910344FEA2A1416D0DDE90C017A
:10290000934B0327D3E90823FDF710FFCDE904011A
:1029100004F00F048E4E54B9DDE91023DDE9040103
:10292000FDF704FFCDE9040129E00227F2E7E10702
:1029300008D5DDE91001D6E90023FDF7CDFDCDE98D
:102940001001013764100836E5E700F0A580DDE9E5
:102950000C01CAF100047D4B04F00F0203EBC2032B
:10296000D3E90023FDF7B8FD02270023CDE90401D8
:10297000774E2411002C40F08480002BD2D10F9B85
:10298000002B00F08B80DDE90434CDE91034DDE963
:10299000100100226F4BFEF711F800287ED0089B33
:1029A000002B7BD0B9F1000F38DDDDE910010022EA
:1029B000694BFDF791FD4C46CDE904010AF1FF3862
:1029C00001373846FDF71EFDDDE90423FDF784FDE0
:1029D0000022624BFDF7CAFBA1F15076CDE9100150
:1029E0001196002C5DD1DDE9040100225C4BFDF75E
:1029F000BBFB02460B46CDE904233346109AFDF794
:102A0000FBFF002840F09C82DDE90401109A06F1EA
:102A10000043FDF7D3FF002840F09082DDE90C343D
:102A2000CDE90434179B002BC0F25281BAF10E0F8E
:102A300000F34E81454B03EBCA03D3E90034CDE9E3
:102A40000634239B002B80F2DB80089B002B00F3D5
:102A5000D78040F07282DDE906010022404BFDF78D
:102A60003BFDDDE90423FDF7BDFF089C2646002859
:102A700040F048823123039F0AF1010A07F8013B25
:102A800044E2E20705D5D6E90023FDF725FD012341
:102A90000137641008366DE7022770E7D046089CBE
:102AA0008FE70399294B214412910B9903EBC4033F
:102AB000DDE9106753E90223002955D00020294998
:102AC000FDF734FE3B463246FDF74EFBCDE91001E3
:102AD000039FDDE90401FDF7AFFF0446FDF792FC1B
:102AE00002460B46DDE90401FDF73EFB02460B46BC
:102AF0003034CDE90423DDE9102307F8014BFDF75D
:102B00005DFF002874D1DDE9042300201149FDF7A1
:102B10002BFBDDE91023FDF751FF002840F0B780C3
:102B2000129B9F423FF47AAFDDE9100100220A4B6D
:102B3000FDF7D2FC0022CDE91001DDE90401064BCE
:102B4000FDF7CAFCCDE90401C3E700BFE04A000875
:102B5000B84A00080000F03F0000244000001C407C
:102B6000000014400000E03F30463946FDF7B4FC59
:102B7000129BCDE91001039C1493DDE90401FDF7DC
:102B80005BFF1590FDF73EFC02460B46DDE90401B4
:102B9000FDF7EAFA159B0646303304F8013B129B19
:102BA0000F469C424FF0000224D1DDE91001B04BEA
:102BB000FDF7DCFA02460B4630463946FDF71CFFAE
:102BC000002863D1DDE910230020A949FDF7CCFAE4
:102BD00002460B4630463946FDF7F0FE00283FF42A
:102BE0001DAF149F7B1E149317F8013C302BF8D0B7
:102BF000C2463BE09F4BFDF76FFCCDE90401BCE70B
:102C0000039FDDE90489DDE9062340464946FDF7D7
:102C10008DFDFDF711FF0446FDF7F4FBDDE906230A
:102C2000FDF75AFC02460B4640464946FDF79CFA22
:102C300004F1300607F8016B039EDDF820C0BE1BCF
:102C4000B44502460B4636D1FDF790FADDE906237E
:102C500080468946FDF7D0FE58BBDDE90623404695
:102C60004946FDF7A1FE08B1E10722D4284659469E
:102C700000F0F0FA00233B70249B0AF10100186079
:102C8000269B002B3FF4DEAC1F60DBE427463B466F
:102C90001F4613F8012D392A07D1039A9A42F7D11A
:102CA0003022039908F101080A701A7801321A706B
:102CB0009EE7D046EBE700226E4BFDF70DFC0022AD
:102CC000002380468946FDF76FFE00289BD0CDE7A4
:102CD0000B9A002A00F0D080229A012A00F3AE80DD
:102CE000139A002A00F0A68003F233430A9C069F41
:102CF000069A01211A440692099A28461A44099212
:102D000000F05EFB0646002F0CDD099B002B09DD61
:102D1000BB42A8BF3B46069AFF1AD21A0692099AEE
:102D2000D31A09930A9BF3B10B9B002B00F0A880E8
:102D3000002C10DD31462246284600F0FFFB5A46A3
:102D400001460646284600F051FB80465946284673
:102D500000F080FAC3460A9B1A1B04D05946284645
:102D600000F0ECFB83460121284600F029FB0E9B76
:102D70000446002B40F386801A460146284600F0A0
:102D8000DDFB229B0446012B7FDD4FF00008236909
:102D900004EB8303186900F0C5FAC0F12000099B19
:102DA000184410F01F0000F09280C0F12003042BA3
:102DB00040F38A80C0F11C00069B0744034406933D
:102DC000099B03440993069B002B05DD59461A46CF
:102DD000284600F00DFC8346099B002B05DD2146AB
:102DE0001A46284600F004FC04460F9B002B70D0C6
:102DF0002146584600F06CFC00286ADA0023594648
:102E00000A22284600F048FA0B9B83460AF1FF3A53
:102E1000002B00F09481314600230A22284600F05E
:102E20003BFAB9F1000F064600F39380229B022B78
:102E300057DC8EE0169BC3F1360357E7089B5C1EF8
:102E40000A9BA342B7BF0A9B1C1BE21A0E9BBEBF84
:102E50000A949B180E93089BB8BF0024002BBBBF9D
:102E6000069B089A069F9F1AACBF089B00233FE76A
:102E70000000E03F000024400A9C069F0B9E42E7B2
:102E80000A9A6BE7229B012B19DC049BBBB9059BBB
:102E9000C3F313039BB9059B23F000431B0D1B05D4
:102EA00083B14FF00108069B01330693099B013360
:102EB00009930E9B002B7FF46AAF01206FE74FF060
:102EC0000008F6E79846F4E73FF47DAF18461C305B
:102ED00072E7089B002B36DC229B022B33DDDDF8EA
:102EE0002090B9F1000F0DD121464B46052228460E
:102EF00000F0D2F901460446584600F0E9FB0028EC
:102F00003FF7B8AD239B039F6FEA030A4FF0000819
:102F10002146284600F09EF9002E3FF4A7AEB8F1F6
:102F2000000F05D0B04503D04146284600F092F985
:102F30003146284600F08EF998E600242646E1E75F
:102F4000C246264696E50B9BDDF82090002B00F04C
:102F5000FD80002F05DD31463A46284600F048FB4B
:102F60000646B8F1000F5CD02846716800F032F9CF
:102F7000074628B9024640F2EA217F4BFFF728BBFB
:102F8000326906F10C01023292000C3000F014F9A3
:102F900001223946284600F02BFBB0460646039B2B
:102FA00001330893039B4B440A93049B03F00103F2
:102FB0000993089B2146013B58460493FFF766FAA4
:102FC000034641463033069058460B9300F080FB91
:102FD000324681462146284600F096FBC2680746E5
:102FE0000B9B02BB0146584600F072FB02460B9B4E
:102FF00039462846CDE90B3200F02CF9229B0C9A79
:10300000089F43EA0201099B0B430B9B0DD1392B0F
:1030100029D0B9F1000F01DD069B3133049A1370FA
:1030200076E73046B9E70122E2E7B9F1000F06DBA7
:10303000229941EA0909099959EA010120D1002A96
:10304000ECDD594601222846089300F0D1FA2146CA
:10305000834600F03DFB0028089B02DCDED1DA0746
:10306000DCD5392BD8D13923049A13703B461F463F
:1030700017F8012C013B392A50D001321A7047E76A
:10308000002A03DD392BEED00133C7E7089A0A99ED
:1030900002F8013C8A422AD0594600230A222846D7
:1030A00000F0FAF8B04583464FF000034FF00A02F3
:1030B0004146284607D100F0EFF880460646089BB7
:1030C0000133089375E700F0E7F8314680460023A6
:1030D0000A22284600F0E0F80646F0E7B9F1000FB2
:1030E000CCBF4F4601274FF00008039A17445946BA
:1030F00001222846089300F07BFA2146834600F01F
:10310000E7FA0028B2DC02D1089BDB07AED43B46CD
:103110001F4613F8012D302AFAD0F9E6039A9A4295
:10312000A5D131230AF1010A79E7144BFFF7A8BAB8
:10313000269B002B7FF481AA114BFFF7A1BAB9F1AE
:10314000000F03DC229B022B3FF7CBAE039F2146EF
:103150005846FFF79BF9039A00F1300307F8013B4B
:10316000BA1A9145BADD594600230A22284600F0D2
:1031700093F88346EBE700BF4B4A0008A8490008D4
:10318000CC4900080048704760010020024B01460E
:10319000186800F01DBC00BF0C000020034610B5ED
:1031A000C9B202449342184601D1002003E00478DA
:1031B00001338C42F6D110BD0A44914200F1FF3335
:1031C00000D1704710B511F8014B914203F8014F3F
:1031D000F9D110BD70B5466A04460D4676B9102087
:1031E000FFF7D4FF0246606220B96621174B1848EA
:1031F00000F0CEFDC0E901660660C660666AF3684D
:1032000083B1636ADB6853F82500B8B9012101FA7C
:1032100005F6721D2046920000F05EFB60B1C0E929
:1032200001560EE021220421204600F055FB636A7E
:10323000F060DB68002BE4D1002070BD026843F829
:1032400025200023C0E90333F7E700BFD949000870
:103250005C4A000870B5466A05460C4676B91020EF
:10326000FFF794FF0246686220B98A21084B09489B
:1032700000F08EFDC0E901660660C6603CB16B6A75
:103280006268DB6853F82210216043F8224070BD69
:10329000D94900085C4A00082DE9F04107460C4670
:1032A0001E4600200D6901F1140CDCF800300130DD
:1032B00099B202FB01611E0C0B0C02FB063389B2B2
:1032C00001EB034185424FEA13464CF8041BECDC4A
:1032D0000EB3A368AB4219DC616838460131FFF7D1
:1032E00079FF804628B90246B5210C4B0C4800F006
:1032F0004FFD226904F10C01023292000C30FFF7FD
:103300005BFF21463846FFF7A5FF444604EB8503E3
:1033100001355E6125612046BDE8F0814B4A000819
:103320005C4A0008020C12040346CAB903041020C8
:1033300013F07F4F04BF1B02083013F0704F04BF1F
:103340001B01043013F0404F04BF9B000230002BE0
:1033500005DB13F0804F00F1010008BF202070470B
:103360000020E5E70368024613F007000BD0D907F9
:1033700021D4980749BF5B089B08012013605CBFFC
:1033800002201360704799B209B910201B0CD9B202
:1033900009B908301B0A190704BF1B090430990733
:1033A00004BF9B080230D90703D45B0800F1010079
:1033B00003D0136070470020704720207047000042
:1033C00010B50C460121FFF705FF024628B94FF45E
:1033D000A071044B044800F0DBFC0123446103614D
:1033E00010BD00BF4B4A00085C4A00082DE9F04FB1
:1033F00091460A69D9F810300C469A42BEBF0B4676
:103400004C4699462769D9F810A0A368616807EB74
:103410000A06B34285B0B8BF0131FFF7DBFE30B911
:10342000024640F25D11434B434800F0B1FC00F10D
:1034300014052B46002205EB8608434521D304F1F1
:10344000140303EB870709F1140303EB8A020292CA
:103450003A1B153A22F00302043204F115018F429F
:1034600038BF04220192029A03939A420CD8002E8C
:1034700003DD58F8043D002B59D0066105B0BDE8C6
:10348000F08F43F8042BD8E7B3F800A0BAF1000F8F
:1034900023D0A9464FF0000C04F1140E5EF8042B63
:1034A000D9F800101FFA82FB89B20AFB0B116144A4
:1034B000D9F800C0120C4FEA1C4C0AFB02C202EB06
:1034C000114289B241EA024177454FEA124C49F86C
:1034D000041BE3D8019A45F802C0039A0433B2F8FA
:1034E0000290B9F1000F20D0AE464FF0000A2968D3
:1034F00004F1140CBCF800B0BEF8022089B209FB3C
:103500000B22924441EA0A414EF8041B5CF8042B5A
:10351000BEF80010120C09FB0211674501EB1A41BD
:103520004FEA114AE6D8019AA95004359BE7013EBB
:103530009DE700BF4B4A00085C4A00082DE9F843AC
:10354000154612F0030206460F4607D0254C013AF5
:10355000002354F82220FFF79FFE0746AD103DD010
:10356000746A7CB91020FFF711FE0246706228B918
:103570004FF4D7711C4B1D4800F00AFCC0E9014410
:103580000460C460D6F82480D8F808404CB940F2F2
:1035900071213046FFF714FF00230446C8F80800E5
:1035A00003604FF00009EB070AD539462246304642
:1035B000FFF71CFF804639463046FFF74BFE474673
:1035C0006D100BD0206838B9224621463046FFF7EF
:1035D0000DFF2060C0F800900446E4E73846BDE8DF
:1035E000F88300BFA84B0008D94900085C4A0008CE
:1035F0002DE9F0470C46074691462369496803EBDD
:103600006218A3684FEA621A08F10106B3420BDBA5
:103610003846FFF7DFFD054648B9024640F2D911AA
:10362000294B2A4800F0B4FB01315B00EEE7002390
:1036300000F1140100F110021846534537DB2069F0
:103640002AEAEA7A04F1140319F01F0901EB8A014E
:1036500003EB80002FD08A464FF0000CC9F1200EFA
:103660001A6802FA09F242EA0C024AF8042B53F8EB
:10367000042B984222FA0EFCF2D8031B153B23F0D0
:103680000303043304F11502904238BF042341F8C8
:1036900003C0BCF1000F01D008F10206013E38461C
:1036A00021462E61FFF7D6FD2846BDE8F08742F897
:1036B000040F0133C1E7043953F8042B984241F851
:1036C000042FF9D8EAE700BF4B4A00085C4A00081B
:1036D00003460A69006930B5801A0DD114331431DC
:1036E00003EB820401EB820154F8045D51F8042DD0
:1036F000954202D004D3012030BDA342F4D3FBE7AE
:103700004FF0FF30F8E700002DE9F84F0D4607466F
:10371000114628461446FFF7DBFF061E11D131463D
:103720003846FFF757FD024628B940F232213A4B9E
:103730003A4800F02DFB0123C0E904361046BDE8ED
:10374000F88FA4BF23462C4638466168A6BF1D46A5
:1037500000260126FFF73EFD024618B94FF410710E
:103760002D4BE5E702F11408C2464FF0000C276923
:10377000C6602E6904F1140005F1140900EB870EF0
:1037800009EB8606103454F804BF59F8043B1FFABD
:103790008BF18C4499B21B0CACEB0101C3EB1B43C6
:1037A00003EB214389B24FEA234C4E4541EA0343E0
:1037B0004AF8043BE7D8731B153B23F00303153588
:1037C0000433AE4238BF0423184443441E46054622
:1037D00075450ED30EF10301091A21F003010338D8
:1037E000864538BF0021194451F8043D8BB117615B
:1037F000A4E755F8048B1FFA88F161440C1404EB1C
:10380000184489B241EA04414FEA244C46F8041BAB
:10381000DEE7013FE8E700BF4B4A00085C4A0008CA
:103820002DE9F3410121DDE9087690461D46FFF7B9
:10383000D1FC044630B9024640F20A31244B2548F7
:1038400000F0A6FAC5F31303C5F30A552DBB019387
:10385000B8F1000326D068460093FFF783FD009976
:10386000F0B1019AC0F1200302FA03F30B43C24006
:1038700063610192019B002B14BF02210121A3610E
:103880002161C5B1A5F233450544C0F135003D6065
:103890003060204602B0BDE8F08143F48013D6E7E3
:1038A0006161E7E701A8FFF75DFD0121019B21614F
:1038B00063612030E5E704EB8103A0F23240386019
:1038C0001869FFF72FFDC0EB41113160E1E700BF40
:1038D0004B4A00085C4A000870B5A1FB025434B999
:1038E000294600F075F8064628B9304670BD0C220E
:1038F00000260260F9E72A462146FEF73FF9F4E781
:1039000038B50546002940D051F8043C0C1F002B67
:10391000B8BFE41800F098FA1C4A136833B9636022
:1039200014602846BDE8384000F094BAA34208D994
:10393000206821188B4201BF19685B680918216053
:10394000EDE71A465B680BB1A342FAD9116850182B
:10395000A0420BD120680144501883421160E0D18D
:1039600018685B68014411605360DAE702D90C23E0
:103970002B60D6E7206821188B4201BF19685B686D
:103980000918216063605460CBE738BD80020020D5
:1039900070B50E4E0C463168054611B900F0E8F9D5
:1039A00030602146284600F0E3F9431C0AD0C41CCD
:1039B00024F00304A04207D0211A284600F0D8F9C9
:1039C000013001D14FF0FF34204670BD8402002049
:1039D0002DE9F041CD1C25F0030508350C2D38BF2D
:1039E0000C25002D074601DBA94205D90C23002632
:1039F0003B603046BDE8F0812E4E00F025FA33687A
:103A00001C4634BB29463846FFF7C2FF431C044618
:103A10004DD134682646002E40D1236831463846C1
:103A200004EB030800F0A4F980453AD1216803357E
:103A30006D1A25F0030508350C2D38BF0C253846C6
:103A40002946FFF7A5FF01302BD023682B442360C4
:103A50000EE02268521B1ED40B2A16D96119A3420C
:103A6000256018BF5960636808BF316062514B60C0
:103A7000384604F10B0600F0EDF926F00706231D89
:103A8000F21AB6D09B1BA350B3E76268A3420CBFE7
:103A900032605A60ECE723466468B2E734467668E1
:103AA000B9E70C2338463B6000F0D4F9A1E7256064
:103AB000DEE700BF800200202DE9F0478E688246D5
:103AC0009E420C4690461F4638D88A8912F4906F61
:103AD00032D0256809690133A5EB010965694B44BA
:103AE00005EB450505EBD5756D109D4238BF1D46AC
:103AF000530531D52946FFF76BFF064650B90C2315
:103B00004FF0FF30CAF80030A38943F04003A3818F
:103B1000BDE8F0874A462169FFF74EFBA38923F4ED
:103B2000906343F08003A38126614E4426603E46A5
:103B30006561A5EB0905A560BE4200D93E46324647
:103B40004146206800F066F9A36800209B1BA36033
:103B5000236833442360DBE72A4600F081F90646F8
:103B60000028E1D150462169FFF7CAFEC7E70000EF
:103B70002DE9F04F98468B8907461B060D461446E3
:103B80009DB00ED50B6963B94021FFF721FF286076
:103B9000286120B90C233B604FF0FF30D1E0402377
:103BA0006B610023099320238DF8293030234FF0D7
:103BB0000109CDF80C80DFF8A4818DF82A30234666
:103BC0009A4613F8012B0AB1252AF9D1BAEB040B56
:103BD0000BD05B46224629463846FFF76DFF013081
:103BE00000F0AA80099A5A4409929AF80030002BF2
:103BF00000F0A28000234FF0FF32CDE905230AF147
:103C0000010A049307938DF853301A935446052202
:103C100014F8011B5148FFF7C1FA049AD8B9D0062D
:103C200044BF20238DF85330110744BF2B238DF858
:103C300053309AF800302A2B15D0544600204FF00C
:103C40000A0C079A214611F8013B303B092B4ED94B
:103C5000B0B1079214E0A0EB080309FA03F3134391
:103C6000A2460493D2E7039B191D1B680391002B06
:103C7000BBBF5B4242F0020207930793B8BF0492B6
:103C800023782E2B0CD163782A2B35D1039B023459
:103C90001A1D1B680392002BB8BF4FF0FF3305932A
:103CA000DFF8BCA0032250462178FFF777FA40B135
:103CB0004023A0EB0A0003FA00F0049B0134034305
:103CC000049314F8011B062226488DF82810FFF7EC
:103CD00065FA002838D0244B1BBB039B073323F025
:103CE000070308330393099B3344099367E70C46A2
:103CF00001200CFB0232A5E700234FF00A0C194605
:103D000001340593204610F8012B303A092A03D9D3
:103D1000002BC5D00591C3E7044601230CFB01210C
:103D2000F0E703AB00932A463846104B04A9FDF791
:103D3000CBFF421C0646D6D1AB895B063FF52CAFC4
:103D400009981DB0BDE8F08F03AB00932A463846B2
:103D5000064B04A9FEF754FAEBE700BFB44B00088A
:103D6000BA4B0008BE4B0008C91C0008B93A00084D
:103D700038B50023054D044608462B60FDF788F949
:103D8000431C02D12B6803B1236038BD8802002098
:103D90001FB514461A46094B05461B68D8684CB136
:103DA000074BCDE9013400912B46064900F00EF88F
:103DB00000F0AAFA044B1C46F3E700BF0C000020F9
:103DC000C54B0008D24B0008664900080EB403B585
:103DD000014603AB054853F8042B0068019300F03B
:103DE00095F802B05DF804EB03B070470C000020BA
:103DF00082B001B901A942B14BB113780B601278BE
:103E0000101E18BF012002B070471046FBE76FF08C
:103E10000100F8E7884210B501EB020402D98442A0
:103E2000234607D8431EA14208D011F8012B03F8FE
:103E3000012FF8E7014602448A4200D110BD13F871
:103E4000014D02F8014DF7E7014800F019BC00BF31
:103E50008C020020014800F014BC00BF8C0200203E
:103E60002DE9F041804614460E4621B91146BDE8C1
:103E7000F041FFF7ADBD2AB9FFF742FD25462846C0
:103E8000BDE8F08100F064FC8442074602D8B4EB40
:103E9000500F12D821464046FFF79AFD05460028EC
:103EA000EDD0BC422246314628BF3A46FFF784F99E
:103EB00031464046FFF724FDE1E73546DFE79368EA
:103EC00010B4013B002B936007DA9469A34201DB35
:103ED0000A2902D110BC00F049B91368581C1060BF
:103EE0001970084610BC7047F8B506460F461446D0
:103EF000D518AC4201D1002007E03A46304614F80C
:103F0000011BFFF7DCFF431CF3D1F8BD2DE9F04F97
:103F10000D461446984606469DB018B183690BB904
:103F200000F010FB894B9D421BD175686B6ED90761
:103F300005D4AB899A0502D4A86D00F0A1FBAB892A
:103F40001B0701D52B69EBB92946304600F06EF905
:103F5000C0B16B6EDC070ED54FF0FF301DB0BDE871
:103F6000F08F7B4B9D4201D1B568DFE7794B9D42D5
:103F700008BFF568DAE7AB899805EDD4A86D00F0C5
:103F800080FBE9E70023099320238DF829303023B3
:103F90004FF00109CDF80C80DFF8BC818DF82A3094
:103FA00023469A4613F8012B0AB1252AF9D1BAEB18
:103FB000040B0BD05B46224629463046FFF794FFA0
:103FC000013000F0AA80099A5A4409929AF8003008
:103FD000002B00F0A28000234FF0FF32CDE9052333
:103FE0000AF1010A049307938DF853301A9354464B
:103FF000052214F8011B5848FFF7D0F8049AD8B9E5
:10400000D10644BF20238DF85330130744BF2B2320
:104010008DF853309AF800302A2B15D054460020E2
:104020004FF00A0C079A214611F8013B303B092B4F
:104030004ED9B0B1079214E0A0EB080309FA03F3DC
:104040001343A2460493D2E7039B191D1B680391F7
:10405000002BBBBF5B4242F0020207930793B8BF3D
:10406000049223782E2B0CD163782A2B35D1039B15
:1040700002341A1D1B680392002BB8BF4FF0FF33A8
:104080000593DFF8D8A0032250462178FFF786F881
:1040900040B14023A0EB0A0003FA00F0049B013476
:1040A0000343049314F8011B06222D488DF82810B1
:1040B000FFF774F800283FD02A4B1BBB039B073344
:1040C00023F0070308330393099B3B44099367E7F5
:1040D0000C4601200CFB0232A5E700234FF00A0C2E
:1040E000194601340593204610F8012B303A092A6D
:1040F00003D9002BC5D00591C3E7044601230CFB6F
:104100000121F0E703AB00932A463046164B04A981
:10411000FDF7DAFD0746781CD6D16B6ED90705D4BA
:10412000AB899A0502D4A86D00F0ABFAAB895B06A7
:104130003FF512AF099811E703AB00932A463046CA
:10414000094B04A9FEF75CF8E4E700BF2C4D00081A
:104150004C4D00080C4D0008B44B0008BA4B000849
:10416000BE4B0008C91C0008E93E0008F8B50E4621
:104170001446054618B183690BB900F0E3F9214BE9
:104180009C422BD16C68A369A360A3891A072FD521
:1041900023696BB323692068F6B2C01A6369374696
:1041A000834204DC2146284600F038F930BBA3687E
:1041B0000130013BA36023685A1C22601E706369B2
:1041C000834204D0A389DB0706D50A2E04D12146F9
:1041D000284600F023F988B93846F8BD0A4B9C42BE
:1041E00001D1AC68CFE7094B9C4208BFEC68CAE735
:1041F0002146284600F01AF80028CBD04FF0FF37B0
:10420000EAE700BF2C4D00084C4D00080C4D00089B
:104210000346084641B1FF2A04D98A224FF0FF30F5
:104220001A60704701200A7070470000324B70B569
:104230001D6806460C4625B1AB6913B9284600F047
:1042400081F92E4B9C420FD16C68A389B4F90C20E4
:1042500019072CD4DD0611D40923336042F0400342
:104260004FF0FF30A3813EE0254B9C4201D1AC686A
:10427000EBE7244B9C4208BFEC68E6E7580712D5F1
:10428000616B41B104F14403994202D03046FFF71B
:1042900037FB00236363A38923F02403A381002356
:1042A000636023692360A38943F00803A381236922
:1042B0004BB9A38903F42073B3F5007F03D02146E3
:1042C000304600F005FAA089B4F90C2010F0010383
:1042D0000AD00023A36063695B42A361236943B9E9
:1042E00010F08000BAD170BD810758BF6369A36028
:1042F000F4E70020F7E700BF0C0000202C4D000879
:104300004C4D00080C4D0008062008B500F050FA8E
:104310000120FCF78EFE00008A89F8B505461007DB
:104320000C4657D44B68002B04DC0B6C002B01DCD3
:104330000020F8BDE66A002EFAD0002312F4805265
:104340002F682B6032D0606DA3895A0705D563684A
:10435000C01A636B0BB1236CC01A00230246E66AD5
:104360002846216AB047431CA38906D129681D2924
:104370002CD8294ACA40D60728D500226260226973
:10438000D904226004D5421C01D12B6803B96065B1
:10439000616B2F600029CBD004F14403994202D015
:1043A0002846FFF7ADFA00206063C2E7216A0123C7
:1043B0002846B047411CC7D12B68002BC4D01D2B09
:1043C00001D0162B01D12F60B2E7A38943F040033F
:1043D000A381AEE70F69002FAAD0930718BF00236F
:1043E0000E6808BF4B69F61B0F608B60002E9FDDC7
:1043F00033463A462846216AD4F828C0E0470028C8
:1044000006DCA3894FF0FF3043F04003A38190E71F
:104410000744361AEAE700BF0100402038B50B69AF
:1044200005460C4613B90025284638BD18B18369E6
:104430000BB900F087F8144B9C421BD16C68B4F99F
:104440000C30002BEFD0626ED00704D4990502D453
:10445000A06D00F015F928462146FFF75DFF636E59
:104460000546DA07E0D4A3899B05DDD4A06D00F0F2
:1044700008F9D9E7054B9C4201D1AC68DFE7044B52
:104480009C4208BFEC68DAE72C4D00084C4D000850
:104490000C4D0008002310B50446C0E90033C0E904
:1044A0000433836081814366C28183611946082297
:1044B0005C30FDF763FB054B24626362044BA3622F
:1044C000044BE362044B236310BD00BFE9470008BF
:1044D0000B4800084348000867480008014900F0FD
:1044E000AFB800BF1D440008682270B54D1E55438B
:1044F0000E4605F17401FFF76BFA044640B1002146
:10450000C0E900160C30A06005F16802FDF736FB2B
:10451000204670BD014800F0B3B800BF8D020020F6
:10452000014800F0AEB800BF8D020020014800F045
:10453000A7B800BF8E020020014800F0A2B800BF5B
:104540008E02002010B50446FFF7F0FFA3691BB1EF
:10455000BDE81040FFF7F0BFC4E912332365134BE9
:10456000134A1B68A262A34208BF0123204608BF6A
:10457000A36100F01FF86060204600F01BF8A06007
:10458000204600F017F800220421E0606068FFF781
:1045900081FF01220921A068FFF77CFF022212217E
:1045A000E068FFF777FF0123A361D1E79449000892
:1045B000DD440008F8B50746FFF7ACFF1E4B1E6848
:1045C000B36913B93046FFF7BDFF4836D6E9013469
:1045D000013B03D533680BB33668F7E7B4F90C50E9
:1045E000D5B9164B04F15800E360656600F047F852
:1045F000FFF796FF08222946C4E90155C4E904558E
:104600002560A56104F15C00FDF7B8FAC4E90D5519
:10461000C4E912552046F8BD6834D9E7042138466C
:10462000FFF762FF044630600028D5D1FFF778FF1E
:104630000C233B60EEE700BF944900080100FFFF38
:104640002DE9F84306468846002700F14804D4E9DE
:104650000195B9F1010905D52468002CF7D1384638
:10466000BDE8F883AB89012B07D9B5F90E300133CA
:1046700003D029463046C04707436835E9E770470D
:104680007047704770B50E46B1F90E1014460029F8
:104690001D4696B008DA0022B6F90C302A601A06D8
:1046A00010D44FF480630EE06A4600F003F900284E
:1046B000F1DB019A02F47042A2F500535A425A41CA
:1046C0002A60EEE740230020236016B070BD000092
:1046D0008B8973B59D0706460C4607D504F1470341
:1046E000236023610123636102B070BD6A4601ABA0
:1046F000FFF7C8FF009905463046FFF769F948B94A
:10470000B4F90C309A05EFD423F0030343F002030D
:10471000A381E3E70D4BB362A389206043F08003DC
:10472000A381009B20616361019B5BB13046B4F9BA
:104730000E1000F0D1F828B1A38923F0030343F051
:104740000103A381A0890543A581CDE7DD440008CD
:1047500051F8043C181F002BBCBF0B58C018704701
:104760001F2938B504460D4604D9162303604FF0BF
:10477000FF3038BD426C12B152F821304BB920469F
:1047800000F030F82A4601462046BDE8384000F0E7
:1047900017B8012B0AD0591C03D11623036001203E
:1047A000E7E70024284642F8254098470020E0E744
:1047B000024B01461868FFF7D3BF00BF0C00002072
:1047C00038B50023064D0446084611462B60FCF719
:1047D00028FC431C02D12B6803B1236038BD00BF05
:1047E00088020020FCF71BBC10B50C46B1F90E1076
:1047F00000F094F80028ABBF636DA3891B1823F465
:104800008053ACBF6365A38110BD2DE9F0411F4605
:104810008B890546DB050C46164605D5022300228A
:10482000B1F90E1000F068F8A389324623F48053E2
:10483000A38128463B46B4F90E10BDE8F04100F0D4
:1048400017B810B50C46B1F90E1000F055F8431C1E
:10485000A38915BF606523F4805343F48053A3817B
:1048600018BFA38110BDB1F90E1000F013B80000FD
:1048700038B50446084611460022054D2A601A46FE
:10488000FCF7EBFB431C02D12B6803B1236038BD5E
:104890008802002038B50023054D044608462B60E9
:1048A000FCF7E9FB431C02D12B6803B1236038BD40
:1048B0008802002038B50023064D044608461146FC
:1048C0002B60FCF7DBFB431C02D12B6803B1236098
:1048D00038BD00BF8802002038B50023054D0446CE
:1048E00008462B60FCF7CFFB431C02D12B6803B1B9
:1048F000236038BD8802002038B5044608461146BA
:104900000022054D2A601A46FCF7BFFB431C02D16A
:104910002B6803B1236038BD8802002038B50446F7
:10492000084611460022054D2A601A46FCF787FB0F
:10493000431C02D12B6803B1236038BD88020020DC
:10494000F8B500BFF8BC08BC9E467047F8B500BF7C
:08495000F8BC08BC9E4670474C
:104958004B4559505245535345443A25730A000074
:104968000000000000000001020304060708090017
:104978000000000102030402030405060708090AEF
:104988000B0C0D0E0F10100102000000100000208B
:10499800494E4600696E66004E414E006E616E00DB
:1049A80030003031323334353637383941424344B8
:1049B8004546003031323334353637383961626331
:1049C80064656600496E66696E697479004E614E69
:1049D800005245454E54206D616C6C6F63207375B1
:1049E80063636565646564002F6275696C642F672D
:1049F8006E752D746F6F6C732D666F722D73746D79
:104A080033325F31302E332D323032312E31302E69
:104A180032303231313130352D313130302F7372FF
:104A2800632F6E65776C69622F6E65776C69622F8C
:104A38006C6962632F7374646C69622F64746F614C
:104A48002E630042616C6C6F6320737563636565E8
:104A5800646564002F6275696C642F676E752D74C8
:104A68006F6F6C732D666F722D73746D33325F3197
:104A7800302E332D323032312E31302E3230323129
:104A8800313130352D313130302F7372632F6E65EF
:104A9800776C69622F6E65776C69622F6C696263E7
:104AA8002F7374646C69622F6D707265632E630076
:104AB8000080E03779C34143176E05B5B5B8934612
:104AC800F5F93FE9034F384D321D30F94877825ADE
:104AD8003CBF737FDD4F1575000000000000F03FFC
:104AE80000000000000024400000000000005940C1
:104AF8000000000000408F40000000000088C34014
:104B080000000000006AF8400000000080842E4188
:104B180000000000D01263410000000084D79741D4
:104B28000000000065CDCD41000000205FA00242DA
:104B3800000000E876483742000000A2941A6D424F
:104B4800000040E59C30A2420000901EC4BCD64242
:104B580000003426F56B0C430080E03779C34143ED
:104B680000A0D8855734764300C84E676DC1AB4363
:104B7800003D9160E458E143408CB5781DAF154481
:104B880050EFE2D6E41A4B4492D54D06CFF080445C
:104B9800F64AE1C7022DB544B49DD9794378EA4471
:104BA80005000000190000007D000000232D302BB7
:104BB8002000686C4C00656667454647002C2066F7
:104BC800756E6374696F6E3A2000617373657274F1
:104BD800696F6E2022257322206661696C65643ACC
:104BE8002066696C6520222573222C206C696E650D
:104BF800202564257325730A004300504F534958F4
:104C0800002E0000202020202020202020282828D6
:104C1800282820202020202020202020202020207C
:104C280020202020881010101010101010101010C4
:104C380010101010040404040404040404041010E4
:104C48001010101010414141414141010101010181
:104C5800010101010101010101010101010101102D
:104C68001010101010424242424242020202020256
:104C780002020202020202020202020202020210FE
:104C880010101020000000000000000000000000CC
:104C9800000000000000000000000000000000000C
:104CA80000000000000000000000000000000000FC
:104CB80000000000000000000000000000000000EC
:104CC80000000000000000000000000000000000DC
:104CD80000000000000000000000000000000000CC
:104CE80000000000000000000000000000000000BC
:104CF80000000000000000000000000000000000AC
:104D0800000000000000000000000000000000009B
:104D1800000000000000000000000000000000008B
:104D2800000000000000000000000000000000007B
:104D3800000000000000000000000000000000006B
:104D4800000000000000000000000000000000005B
:104D5800000000000000000000000000000000004B
:044D68000000000047
:044D6C003501000805
:044D70001101000825
:104D74000024F400010000001000000010000020D6
:104D8400000000002C4D00084C4D00080C4D00089C
:104D9400000000000000000000000000000000000F
:104DA40000000000000000000000000000000000FF
:104DB40000000000000000000000000000000000EF
:104DC40000000000000000000000000000000000DF
:104DD40000000000000000000000000000000000CF
:104DE400430000000000000000000000000000007C
:104DF40000000000000000000000000000000000AF
:104E0400430000000000000000000000000000005B
:104E1400000000000000000000000000000000008E
:104E2400430000000000000000000000000000003B
:104E3400000000000000000000000000000000006E
:104E4400430000000000000000000000000000001B
:104E5400000000000000000000000000000000004E
:104E640043000000000000000000000000000000FB
:104E7400000000000000000000000000000000002E
:104E840043000000000000000000000000000000DB
:104E9400000000000000000000000000000000000E
:104EA40043000000000000000000000000000000BB
:104EB40000000000000000000000000000000000EE
:104EC40011420008F13D0008000000000B4C0008EE
:104ED400094C00086649000866490008664900084C
:104EE40066490008664900086649000866490008E2
:104EF4006649000866490008FFFFFFFFFFFFFFFF48
:104F0400FFFFFFFFFFFF0000010041534349490039
:104F1400000000000000000000000000000000008D
:104F24000000000000000000000041534349490014
:104F3400000000000000000000000000000000006D
:0C4F440000000000000000000000000061
:04000005080010D50A
:00000001FF
